:100000000C9438000C9455000C9455000C94550039
:100010000C9455000C9455000C9455000C9455000C
:100020000C9455000C9455000C9455000C945500FC
:100030000C9455000C9455000C9455000C945500EC
:100040000C9455000C9455000C9455000C945500DC
:100050000C9455000C9455000C9455000C945500CC
:100060000C9455000C9455000C9455000C945500BC
:1000700011241FBECFEFD4E0DEBFCDBF11E0A0E062
:10008000B1E0E8E6FDE002C005900D92A43EB107A4
:10009000D9F721E0A4EEB1E001C01D92A43FB20760
:1000A000E1F70E946E010C94B2060C940000E6E6A3
:1000B000FEE03197F1F70000E0E0F4E18083808119
:1000C00008954F925F926F927F928F929F92AF921C
:1000D000BF92CF92DF92EF92FF921F93CF93DF9365
:1000E00000D000D000D0CDB7DEB786E091E09F937E
:1000F0008F930E9490020F900F901E821D82C12C40
:10010000D12C7601812C912C540114C080E80E94DE
:100110005700182F81E80E945700810E911CA11CE6
:10012000B11CC80ED11CE11CF11C8D819E81019671
:100130009E838D838D819E81843F914038F30F2E65
:10014000F4EF4F2E55245394612C712CF02DC501E2
:10015000B401A30192010E9404023A832983C701DA
:10016000B601A30192010E9404023C832B836981A2
:100170007A818B819C8126960FB6F894DEBF0FBEE4
:10018000CDBFDF91CF911F91FF90EF90DF90CF9087
:10019000BF90AF909F908F907F906F905F904F90A7
:1001A0000895CF93DF93C62FD82F80E80E94570081
:1001B0008C1BC82F81E80E945700282F2D1B34E686
:1001C000C39FC0011124880F892F881F990B44E613
:1001D000249F90011124220F232F221F330B922FD3
:1001E000DF91CF9108956091E6017091E7018091D0
:1001F000E8019091E9010E94D100853144F48C3EE0
:1002000044F0953144F49C3E44F484E0089582E047
:10021000089581E0089583E0089580E00895CF92E5
:10022000DF92EF92FF92CF93DF938CE291E09F9366
:100230008F930E9490020F900F90C0E0D0E0C12CED
:10024000D12C760108C082E80E945700C80ED11C4C
:10025000E11CF11C2196C43F81E0D807A0F3C7013F
:10026000B60124EF31E040E050E00E940402C901F1
:10027000DF91CF91FF90EF90DF90CF900895CF93D3
:10028000C82F82E80E9457008C1B24E6829FC00181
:100290001124880F892F881F990BCF910895809181
:1002A000E4019091E5010E943F01853124F48C3EE8
:1002B00024F481E0089582E0089580E0089581B3F8
:1002C000806281BB8FB58C7F8FBD8FB580648FBD01
:1002D0008EB589608EBD1ABC1BBC08950E94DC01DE
:1002E0008FE190E00E94E3010E945F016FEF71E0F7
:1002F00081EF91E00E944502EAEEF1E09383828370
:100300009183808386E691E09F938F930E94900271
:100310000E9461006B017C010E940F01EC010F90B3
:100320000F90C701B6010E94D100292F092E000CA1
:10033000330B3F939F93282F082E000C330B3F93D2
:100340008F9385E791E09F938F930E9490020E9484
:10035000F3001F928F938CE991E09F938F930E94FB
:100360009002CE010E943F01282F082E000C330B73
:100370003F938F9387EB91E09F938F930E9490021E
:100380000E944F011F921F928BEC91E09F938F93DD
:100390000E9490022FEF8FE797E02150804090401D
:1003A000E1F700C000008DB79EB742960FB6F894F3
:1003B0009EBF0FBE8DBFB5CF85B7806885BF80B7A4
:1003C000806280BF089590BD89B98BB18D7F8BB954
:1003D00088E18AB986E880BD08955D9BFECF8CB91F
:1003E0000895CF93C82F8A3019F48DE00E94ED0153
:1003F0008C2F0E94ED0180E090E0CF9108955F9BEB
:10040000FECF8CB190E00895052E97FB1EF400946A
:100410000E941B0257FD07D00E94230207FC03D055
:100420004EF40C941B0250954095309521953F4F0A
:100430004F4F5F4F089590958095709561957F4FD0
:100440008F4F9F4F0895A1E21A2EAA1BBB1BFD01DF
:100450000DC0AA1FBB1FEE1FFF1FA217B307E407A3
:10046000F50720F0A21BB30BE40BF50B661F771FFB
:10047000881F991F1A9469F76095709580959095DB
:100480009B01AC01BD01CF0108950F931F93CF9342
:10049000DF93009731F46115710519F480E090E065
:1004A0003AC08B01EC016EE070E081E090E00E94C8
:1004B0008704FC01892B91F380E8838301151105E2
:1004C00071F01387028781E883838091EA0190911C
:1004D000EB01892B21F4F093EB01E093EA012097E3
:1004E000C9F0D187C0878381826083838091EC01CA
:1004F0009091ED01892B71F4F093ED01E093EC0103
:100500008091EE019091EF01892B21F4F093EF019E
:10051000E093EE01CF01DF91CF911F910F910895EC
:10052000A0E0B0E0E6E9F2E00C948B06AE014B5F90
:100530005F4FFA0161917191AF018091EC0190914F
:10054000ED010E94A602E2E00C94A706ABE0B0E049
:10055000ECEAF2E00C947B066C017B018A01FC0161
:1005600017821682838181FFCCC1CE0101963C01A6
:10057000F6019381F70193FD859193FF81917F01AE
:10058000882309F4BAC1853239F493FD859193FF2C
:1005900081917F01853229F4B60190E00E94E10546
:1005A000E7CF912C212C312CFFE1F315D8F08B32C1
:1005B00079F038F4803279F08332A1F4232D206170
:1005C0001DC08D3261F0803369F4232D216016C087
:1005D000832D8260382EE32DE4603E2E2AC0F32D59
:1005E000F8601DC037FC2DC020ED280F2A3040F0E8
:1005F0008E32B9F436FC81C1232D2064322E19C00D
:1006000036FE06C08AE0989E200D1124922E11C05D
:10061000EAE02E9E200D1124222EF32DF0623F2EB3
:1006200008C08C3621F4832D8068382E02C08836AD
:1006300041F4F70193FD859193FF81917F01811131
:10064000B3CF982F9F7D9554933028F40C5F1F4FA4
:100650009FE399830DC0833631F0833771F0833582
:1006600009F059C021C0F801808189830E5F1F4FB6
:1006700088248394912C530113C02801F2E04F0E7B
:10068000511CF801A080B18036FE03C0692D70E0D6
:1006900002C06FEF7FEFC5010E94D6054C018201B9
:1006A000F32DFF773F2E16C0280122E0420E511C89
:1006B000F801A080B18036FE03C0692D70E002C051
:1006C0006FEF7FEFC5010E94C4054C01F32DF06868
:1006D0003F2E820133FC1BC0822D90E088169906C4
:1006E000B0F4B60180E290E00E94E1052A94F4CFD4
:1006F000F50137FC859137FE81915F01B60190E0ED
:100700000E94E10521102A9421E0821A91088114A7
:10071000910471F7E8C0843611F0893641F5F8018B
:1007200037FE07C060817181828193810C5F1F4F0A
:1007300008C060817181072E000C880B990B0E5F39
:100740001F4FF32DFF763F2E97FF09C090958095A0
:10075000709561957F4F8F4F9F4FF0683F2E2AE035
:1007600030E0A3010E941D06882E861845C08537FB
:1007700031F4232D2F7EB22E2AE030E025C0932DB8
:10078000997FB92E8F36C1F018F4883579F0B5C04D
:10079000803719F0883721F0B0C0E92FE061BE2E14
:1007A000B4FE0DC0FB2DF460BF2E09C034FE0AC09C
:1007B000292F2660B22E06C028E030E005C020E1D7
:1007C00030E002C020E132E0F801B7FE07C06081EE
:1007D0007181828193810C5F1F4F06C0608171819E
:1007E00080E090E00E5F1F4FA3010E941D06882E3F
:1007F0008618FB2DFF773F2E36FE0DC0232D2E7F52
:10080000A22E891458F434FE0BC032FC09C0832D8B
:100810008E7EA82E05C0B82CA32C03C0B82C01C016
:10082000B92CA4FE0FC0FE01E80DF11D80818033BC
:1008300021F49A2D997EA92E09C0A2FE06C0B39478
:10084000B39404C08A2D867809F0B394A3FC11C038
:10085000A0FE06C0B21488F4280C922C9B180EC07F
:10086000B21460F4B60180E290E00E94E105B39416
:10087000F7CFB21418F42B1802C0982C212CA4FE28
:1008800010C0B60180E390E00E94E105A2FE17C00F
:10089000A1FC03C088E790E002C088E590E0B601C3
:1008A0000CC08A2D867859F0A1FE02C08BE201C0EF
:1008B00080E2A7FC8DE2B60190E00E94E105891478
:1008C00038F4B60180E390E00E94E1059A94F7CFF6
:1008D0008A94F301E80DF11D8081B60190E00E9439
:1008E000E1058110F5CF222009F442CEB60180E265
:1008F00090E00E94E1052A94F6CFF6018681978167
:1009000002C08FEF9FEF2B96E2E10C9497060F93B6
:100910001F93CF93DF93869F8001879F100D969F33
:10092000100D1124C8010E94A304EC01009729F0C6
:10093000A80160E070E00E94CF05CE01DF91CF9169
:100940001F910F9108950F931F93CF93DF938230E0
:10095000910510F482E090E0E091F201F091F30152
:1009600020E030E0A0E0B0E0309719F14081518103
:100970000281138148175907C8F08417950769F455
:10098000109731F012960C93129713961C9327C070
:100990000093F2011093F30122C02115310519F0E3
:1009A0004217530718F49A01BD01EF01DF01F80166
:1009B000DBCF21153105F9F0281B390B2430310527
:1009C00080F48A819B816115710521F0FB0193837D
:1009D000828304C09093F3018093F201FE0132966A
:1009E00044C0FE01E20FF31F81939193225031091D
:1009F000398328833AC02091F0013091F101232BF3
:100A000041F420910201309103013093F1012093D0
:100A1000F00120910001309101012115310541F4CF
:100A20002DB73EB74091040150910501241B350BB1
:100A3000E091F001F091F101E217F307A0F42E1B11
:100A40003F0B2817390778F0AC014E5F5F4F241732
:100A5000350748F04E0F5F1F5093F1014093F001AE
:100A60008193919302C0E0E0F0E0CF01DF91CF915C
:100A70001F910F910895CF93DF93009709F481C0E0
:100A8000FC01329713821282A091F201B091F3011E
:100A9000109781F420813181820F931F2091F00102
:100AA0003091F1012817390751F5F093F101E093E6
:100AB000F00167C0ED0120E030E0CE17DF0740F421
:100AC0004A815B819E0141155105F1F0EA01F5CFA4
:100AD000D383C28340815181840F951FC817D907E2
:100AE00059F488819981840F951F029691838083A0
:100AF0008A819B81938382832115310529F4F093A8
:100B0000F301E093F2013DC0E901FB83EA834991DF
:100B10005991C40FD51FEC17FD0761F480819181B5
:100B2000840F951F0296E9019983888382819381BE
:100B30009B838A83E0E0F0E012968D919C9113975D
:100B4000009719F0FD01DC01F7CF8D919C91119771
:100B50009D012E5F3F4F820F931F2091F001309136
:100B6000F1012817390769F4309729F41092F3013D
:100B70001092F20102C013821282B093F101A0938D
:100B8000F001DF91CF910895FC0105906150704014
:100B90000110D8F7809590958E0F9F1F0895DC0166
:100BA00001C06D9341505040E0F70895FC01615041
:100BB000704001900110D8F7809590958E0F9F1F7F
:100BC00008950F931F93CF93DF93FB01238121FDA2
:100BD00003C08FEF9FEF2CC022FF16C046815781C4
:100BE000248135814217530744F4A081B1819D01CE
:100BF0002F5F3F4F318320838C93268137812F5F76
:100C00003F4F3783268314C08B01EC01FB01008426
:100C1000F185E02D0995892BE1F6D80116968D9185
:100C20009C911797019617969C938E931697CE01D9
:100C3000DF91CF911F910F910895FA01AA272830D3
:100C400051F1203181F1E8946F936E7F6E5F7F4F99
:100C50008F4F9F4FAF4FB1E03ED0B4E03CD0670F15
:100C6000781F891F9A1FA11D680F791F8A1F911D68
:100C7000A11D6A0F711D811D911DA11D20D009F4B8
:100C800068943F912AE0269F11243019305D3193FA
:100C9000DEF6CF010895462F4770405D4193B3E0E3
:100CA0000FD0C9F7F6CF462F4F70405D4A3318F08A
:100CB000495D31FD4052419302D0A9F7EACFB4E03B
:100CC000A6959795879577956795BA95C9F70097F3
:100CD0006105710508959B01AC010A2E0694579594
:100CE000479537952795BA95C9F7620F731F841FEB
:100CF000951FA01D08952F923F924F925F926F9281
:100D00007F928F929F92AF92BF92CF92DF92EF929B
:100D1000FF920F931F93CF93DF93CDB7DEB7CA1B1C
:100D2000DB0B0FB6F894DEBF0FBECDBF09942A8847
:100D3000398848885F846E847D848C849B84AA84EF
:100D4000B984C884DF80EE80FD800C811B81AA817C
:100D5000B981CE0FD11D0FB6F894DEBF0FBECDBF47
:080D6000ED010895F894FFCFA6
:100D68000000F4012000486F6C6420746865206AF4
:100D78006F7973746963206F6E206E657574726124
:100D88006C20706F736974696F6E2100486F6C64B2
:100D98002074686520536C69646572206F6E206EDC
:100DA80065757472616C20706F736974696F6E21F8
:100DB800005374617274696E6720414443207465FE
:100DC80073742E2E2E004920616D207072696E7426
:100DD80066210A0D00506F736974696F6E20783A46
:100DE8002025642025252C20506F736974696F6E47
:100DF80020793A2025642025250A0D00506F736953
:100E080074696F6E206F66206A6F79737469636B9B
:100E18003A2025640A0D00506F736974696F6E205B
:100E2800783A2025642025250A0D00506F736974CF
:100E3800696F6E206F6620736C696465723A20254D
:040E4800640A0D002B
:00000001FF
