S013000050696E506F6E6747616D652E73726563DC
S11300000C9438000C9455000C9455000C94550035
S11300100C9455000C9455000C9455000C94550008
S11300200C9455000C9455000C9455000C945500F8
S11300300C9455000C9455000C9455000C945500E8
S11300400C9455000C9455000C9455000C945500D8
S11300500C9455000C9455000C9455000C945500C8
S11300600C9455000C9455000C9455000C945500B8
S113007011241FBECFEFD4E0DEBFCDBF11E0A0E05E
S1130080B1E0E0E8FCE002C005900D92A23EB107A9
S1130090D9F721E0A2EEB1E001C01D92AC3EB20757
S11300A0E1F70E9403010C943E060C94000060E00A
S11300B074E180680E94690189E999E00197F1F788
S11300C000C080E094E10E946C0108954F925F9219
S11300D06F927F928F929F92AF92BF92CF92DF9254
S11300E0EF92FF921F93CF93DF9386E091E09F936B
S11300F08F930E941C020F900F90C0E0D0E0C12C9F
S1130100D12C7601812C912C540110C080E00E94E6
S11301105700182F81E00E945700810E911CA11CEA
S1130120B11CC80ED11CE11CF11C2196C43F81E016
S1130130D80760F3C501B40124EF31E040E050E09A
S11301400E94900129018FE7481A5108C701B6019E
S113015024EF31E040E050E00E94900139018FE744
S1130160681A7108C301B201DF91CF911F91FF900A
S1130170EF90DF90CF90BF90AF909F908F907F9043
S11301806F905F904F900895CF92DF92EF92FF921D
S1130190CF93DF938DE291E09F938F930E941C0293
S11301A00F900F90C0E0D0E0C12CD12C760108C094
S11301B082E00E945700C80ED11CE11CF11C21965C
S11301C0C43F81E0D807A0F3C701B60124EF31E0B2
S11301D040E050E00E949001C901DF91CF91FF906F
S11301E0EF90DF90CF90089581B3806281BB8FB58B
S11301F08C7F8FBD8FB580648FBD8EB589608EBDB9
S11302001ABC1BBC08950E9462018FE190E00E9419
S11302106F010E94F4006BE871E08DE791E00E94A9
S1130220D101E2EEF1E0938382839183808387E6B8
S113023091E09F938F930E941C020E9466000E948B
S1130240C4000F900F9086B18E7F86B987B181600C
S113025087B986B18B7F86B987B1846087B987B344
S11302608B7F87BB85B18170D5B1D470C6B3C470A0
S11302701F928F9386E791E09F938F930E941C02B5
S11302801F92DF9389E991E09F938F930E941C0250
S11302901F92CF938BEB91E09F938F930E941C024C
S11302A02FEF8FEF9BE0215080409040E1F700C09A
S11302B000C08DB79EB70C960FB6F8949EBF0FBEC4
S11302C08DBFC1CF85B7806885BF80B7806280BF8E
S11302D00895FB0180830895FC018081089590BDF9
S11302E089B98BB18D7F8BB988E18AB986E880BDE5
S11302F008955D9BFECF8CB90895CF93C82F8A30A3
S113030019F48DE00E9479018C2F0E94790180E01C
S113031090E0CF9108955F9BFECF8CB190E008955B
S1130320052E97FB1EF400940E94A70157FD07D0E9
S11303300E94AF0107FC03D04EF40C94A701509522
S11303404095309521953F4F4F4F5F4F08959095BD
S11303508095709561957F4F8F4F9F4F0895A1E2CF
S11303601A2EAA1BBB1BFD010DC0AA1FBB1FEE1F2B
S1130370FF1FA217B307E407F50720F0A21BB30B76
S1130380E40BF50B661F771F881F991F1A9469F7F2
S113039060957095809590959B01AC01BD01CF014E
S11303A008950F931F93CF93DF93009731F4611552
S11303B0710519F480E090E03AC08B01EC016EE025
S11303C070E081E090E00E941304FC01892B91F31A
S11303D080E883830115110571F01387028781E892
S11303E083838091E2019091E301892B21F4F093BE
S11303F0E301E093E2012097C9F0D187C0878381AC
S1130400826083838091E4019091E501892B71F4EA
S1130410F093E501E093E4018091E6019091E70116
S1130420892B21F4F093E701E093E601CF01DF91FA
S1130430CF911F910F910895A0E0B0E0E2E2F2E0C5
S11304400C941706AE014B5F5F4FFA0161917191F5
S1130450AF018091E4019091E5010E943202E2E053
S11304600C943306ABE0B0E0E8E3F2E00C9407064A
S11304706C017B018A01FC0117821682838181FF52
S1130480CCC1CE0101963C01F6019381F70193FDA5
S1130490859193FF81917F01882309F4BAC1853244
S11304A039F493FD859193FF81917F01853229F47D
S11304B0B60190E00E946D05E7CF912C212C312CE0
S11304C0FFE1F315D8F08B3279F038F4803279F00B
S11304D08332A1F4232D20611DC08D3261F080335D
S11304E069F4232D216016C0832D8260382EE32DFC
S11304F0E4603E2E2AC0F32DF8601DC037FC2DC0E9
S113050020ED280F2A3040F08E32B9F436FC81C138
S1130510232D2064322E19C036FE06C08AE0989E30
S1130520200D1124922E11C0EAE02E9E200D1124DC
S1130530222EF32DF0623F2E08C08C3621F4832D39
S11305408068382E02C0883641F4F70193FD859106
S113055093FF81917F018111B3CF982F9F7D955493
S1130560933028F40C5F1F4F9FE399830DC08336AB
S113057031F0833771F0833509F059C021C0F80197
S1130580808189830E5F1F4F88248394912C5301AB
S113059013C02801F2E04F0E511CF801A080B18075
S11305A036FE03C0692D70E002C06FEF7FEFC50116
S11305B00E9462054C018201F32DFF773F2E16C085
S11305C0280122E0420E511CF801A080B18036FEC1
S11305D003C0692D70E002C06FEF7FEFC5010E9478
S11305E050054C01F32DF0683F2E820133FC1BC0F3
S11305F0822D90E088169906B0F4B60180E290E06E
S11306000E946D052A94F4CFF50137FC859137FEDD
S113061081915F01B60190E00E946D0521102A943A
S113062021E0821A91088114910471F7E8C084369C
S113063011F0893641F5F80137FE07C060817181F8
S1130640828193810C5F1F4F08C060817181072EE6
S1130650000C880B990B0E5F1F4FF32DFF763F2E76
S113066097FF09C090958095709561957F4F8F4F46
S11306709F4FF0683F2E2AE030E0A3010E94A905B5
S1130680882E861845C0853731F4232D2F7EB22E4F
S11306902AE030E025C0932D997FB92E8F36C1F022
S11306A018F4883579F0B5C0803719F0883721F00F
S11306B0B0C0E92FE061BE2EB4FE0DC0FB2DF46086
S11306C0BF2E09C034FE0AC0292F2660B22E06C0F0
S11306D028E030E005C020E130E002C020E132E053
S11306E0F801B7FE07C060817181828193810C5F3C
S11306F01F4F06C06081718180E090E00E5F1F4F44
S1130700A3010E94A905882E8618FB2DFF773F2E92
S113071036FE0DC0232D2E7FA22E891458F434FEEC
S11307200BC032FC09C0832D8E7EA82E05C0B82CC8
S1130730A32C03C0B82C01C0B92CA4FE0FC0FE0129
S1130740E80DF11D8081803321F49A2D997EA92E24
S113075009C0A2FE06C0B394B39404C08A2D86785F
S113076009F0B394A3FC11C0A0FE06C0B21488F42F
S1130770280C922C9B180EC0B21460F4B60180E2CF
S113078090E00E946D05B394F7CFB21418F42B18BF
S113079002C0982C212CA4FE10C0B60180E390E086
S11307A00E946D05A2FE17C0A1FC03C088E790E07B
S11307B002C088E590E0B6010CC08A2D867859F015
S11307C0A1FE02C08BE201C080E2A7FC8DE2B6016B
S11307D090E00E946D05891438F4B60180E390E03E
S11307E00E946D059A94F7CF8A94F301E80DF11DE8
S11307F08081B60190E00E946D058110F5CF222022
S113080009F442CEB60180E290E00E946D052A947C
S1130810F6CFF6018681978102C08FEF9FEF2B966A
S1130820E2E10C9423060F931F93CF93DF93869FEB
S11308308001879F100D969F100D1124C8010E94FE
S11308402F04EC01009729F0A80160E070E00E94F9
S11308505B05CE01DF91CF911F910F9108950F9306
S11308601F93CF93DF938230910510F482E090E0E0
S1130870E091EA01F091EB0120E030E0A0E0B0E08B
S1130880309719F14081518102811381481759072A
S1130890C8F08417950769F4109731F012960C93F9
S11308A0129713961C9327C00093EA011093EB014F
S11308B022C02115310519F04217530718F49A0183
S11308C0BD01EF01DF01F801DBCF21153105F9F09E
S11308D0281B390B2430310580F48A819B816115F2
S11308E0710521F0FB019383828304C09093EB0193
S11308F08093EA01FE01329644C0FE01E20FF31F29
S11309008193919322503109398328833AC02091ED
S1130910E8013091E901232B41F420910201309147
S113092003013093E9012093E80120910001309103
S113093001012115310541F42DB73EB74091040161
S113094050910501241B350BE091E801F091E90178
S1130950E217F307A0F42E1B3F0B2817390778F092
S1130960AC014E5F5F4F2417350748F04E0F5F1FF1
S11309705093E9014093E8018193919302C0E0E030
S1130980F0E0CF01DF91CF911F910F910895CF93A4
S1130990DF93009709F481C0FC013297138212821D
S11309A0A091EA01B091EB01109781F4208131818B
S11309B0820F931F2091E8013091E901281739072C
S11309C051F5F093E901E093E80167C0ED0120E0FF
S11309D030E0CE17DF0740F44A815B819E01411568
S11309E05105F1F0EA01F5CFD383C28340815181EF
S11309F0840F951FC817D90759F488819981840FEA
S1130A00951F0296918380838A819B81938382833D
S1130A102115310529F4F093EB01E093EA013DC07F
S1130A20E901FB83EA8349915991C40FD51FEC175F
S1130A30FD0761F480819181840F951F0296E9017D
S1130A4099838883828193819B838A83E0E0F0E0A9
S1130A5012968D919C911397009719F0FD01DC017A
S1130A60F7CF8D919C9111979D012E5F3F4F820F7F
S1130A70931F2091E8013091E9012817390769F49F
S1130A80309729F41092EB011092EA0102C013820C
S1130A901282B093E901A093E801DF91CF91089508
S1130AA0FC010590615070400110D8F78095909535
S1130AB08E0F9F1F0895DC0101C06D93415050407B
S1130AC0E0F70895FC016150704001900110D8F7DF
S1130AD0809590958E0F9F1F08950F931F93CF932A
S1130AE0DF93FB01238121FD03C08FEF9FEF2CC017
S1130AF022FF16C04681578124813581421753074E
S1130B0044F4A081B1819D012F5F3F4F3183208345
S1130B108C93268137812F5F3F4F3783268314C000
S1130B208B01EC01FB010084F185E02D0995892BF3
S1130B30E1F6D80116968D919C9117970196179618
S1130B409C938E931697CE01DF91CF911F910F91B5
S1130B500895FA01AA27283051F1203181F1E8944F
S1130B606F936E7F6E5F7F4F8F4F9F4FAF4FB1E09C
S1130B703ED0B4E03CD0670F781F891F9A1FA11D97
S1130B80680F791F8A1F911DA11D6A0F711D811D98
S1130B90911DA11D20D009F468943F912AE0269F5D
S1130BA011243019305D3193DEF6CF010895462FBC
S1130BB04770405D4193B3E00FD0C9F7F6CF462F9D
S1130BC04F70405D4A3318F0495D31FD4052419306
S1130BD002D0A9F7EACFB4E0A695979587957795C3
S1130BE06795BA95C9F700976105710508959B014A
S1130BF0AC010A2E06945795479537952795BA95D3
S1130C00C9F7620F731F841F951FA01D08952F92AB
S1130C103F924F925F926F927F928F929F92AF9288
S1130C20BF92CF92DF92EF92FF920F931F93CF93D5
S1130C30DF93CDB7DEB7CA1BDB0B0FB6F894DEBF6C
S1130C400FBECDBF09942A88398848885F846E8492
S1130C507D848C849B84AA84B984C884DF80EE80DC
S1130C60FD800C811B81AA81B981CE0FD11D0FB6E5
S1130C70F894DEBF0FBECDBFED010895F894FFCF09
S1130C800000EC012000486F6C6420746865206AE1
S1130C906F79737469636B206F6E206E65757472FF
S1130CA0616C20706F736974696F6E2100486F6C9A
S1130CB0642074686520536C69646572206F6E20CB
S1130CC06E65757472616C20706F736974696F6E90
S1130CD021005374617274696E6720414443207427
S1130CE06573742E2E2E004920616D207072696E1A
S1130CF07466210A0D0050494E2076616C7565209A
S1130D00726967687420746F75636820627574749F
S1130D106F6E3A2025640A0D0050494E2076616CAE
S1130D207565206C65667420746F756368206275E0
S1130D3074746F6E3A2025640A0D0050494E207673
S1130D40616C7565206A6F79737469636B20746F65
S1130D5075636820627574746F6E3A2025640A0D99
S1050D6000008D
S9030000FC
