S013000050696E506F6E6747616D652E73726563DC
S11300000C9438000C9455000C9455000C94550035
S11300100C9455000C9455000C9455000C94550008
S11300200C9455000C9455000C9455000C945500F8
S11300300C9455000C9455000C9455000C945500E8
S11300400C9455000C9455000C9455000C945500D8
S11300500C9455000C9455000C9455000C945500C8
S11300600C9455000C9455000C9455000C945500B8
S113007011241FBECFEFD4E0DEBFCDBF12E0A0E05D
S1130080B1E0E0EBFFE002C005900D92A63CB107A1
S1130090D9F722E0A6ECB2E001C01D92AC3DB20754
S11300A0E1F70E9430020C94D6070C94000060E043
S11300B074E180680E94A90289E999E00197F1F747
S11300C000C080E094E10E94AC0208954F925F92D8
S11300D06F927F928F929F92AF92BF92CF92DF9254
S11300E0EF92FF920F931F93CF93DF934C0186E01F
S11300F091E00E949A032FEF8FEF9DE12150804001
S11301009040E1F700C00000C0E0D0E0C12CD12C49
S11301107601412C512C320115C080E00E94570019
S1130120182F81E00E945700410E511C611C711C64
S1130130C80ED11CE11CF11CE9E9F9E03197F1F793
S113014000C02196C43FF1E0DF0738F3C301B201D8
S113015024EF31E040E050E00E94E402C22FD32FAC
S1130160F40120833183C701B60124EF31E040E07C
S113017050E00E94E402F401228333833F932F93DF
S1130180DF93CF9385E391E09F938F930E94840341
S11301908FE691E00E949A03FFEF2FEF8DE1F1507B
S11301A020408040E1F700C000000F900F900F90B6
S11301B00F900F900F90C0E0D0E0C12CD12CAA2456
S11301C0AA94B12C12C080E00E94570090E08A15D6
S11301D09B0508F45C01C816D90608F46C01E9E92A
S11301E0F9E03197F1F700C02196C43FF1E0DF0751
S11301F050F3DF92CF92BF92AF928DEA91E09F933A
S11302008F930E94840381ED91E00E949A032FEF63
S11302108FEF9DE1215080409040E1F700C0000045
S11302200F900F900F900F900F900F90C0E0D0E0C0
S113023000E010E0EE24EA94F12C12C081E00E9468
S1130240570090E08E159F0508F47C0108171907E4
S113025008F48C01E9E9F9E03197F1F700C021963F
S1130260C43FF1E0DF0750F31F930F93FF92EF9227
S11302708DE092E09F938F930E948403F401B186F2
S1130280A086D582C482F386E2861783068381E33F
S113029092E00E949A030F900F900F900F900F908E
S11302A00F90C401DF91CF911F910F91FF90EF90B8
S11302B0DF90CF90BF90AF909F908F907F906F9082
S11302C05F904F900895EF92FF920F931F93CF93F7
S11302D0DF93CDB7DEB72C970FB6F894DEBF0FBE11
S11302E0CDBFE982FA820B831C832D833E834F8327
S11302F0588769877A878B879C8780E00E9457009C
S1130300082F10E081E00E945700E82FF0E04981B7
S11303105A819801241B350B0B811C81E01BF10BC6
S11303201216130674F464E6629FC001639F900D75
S113033011246D817E81641B750B0E94D002262FCF
S11303400EC064E6629FC001639F900D112429854D
S11303503A85BA01621B730B0E94D002262F1E1627
S11303601F0674F434E63E9FC0013F9F900D112494
S11303706F817885601B710B0E94D002962F0EC08E
S113038034E63E9FC0013F9F900D11244B855C8550
S1130390B801641B750B0E94D002962F25360CF011
S11303A024E62C390CF42CE995360CF094E69C39AF
S11303B00CF49CE9822F2C960FB6F894DEBF0FBE86
S11303C0CDBFDF91CF911F910F91FF90EF900895D2
S11303D0EF92FF920F931F93E090C602F090C70232
S11303E00091C8021091C9022091CA023091CB0237
S11303F04091CC025091CD026091CE027091CF0217
S11304008091D0029091D1020E94630189324CF410
S1130410883D54F099325CF4983D64F486E592E0AA
S11304200BC088E492E008C08EE492E005C083E546
S113043092E002C08BE592E01F910F91FF90EF9044
S1130440089581B3806281BB8FB58C7F8FBD8FB5DA
S113045080648FBD8EB589608EBD1ABC1BBC0895A7
S1130460CF93DF93CDB7DEB72C970FB6F894DEBFEA
S11304700FBECDBF0E94A2028FE190E00E94AF02A6
S11304800E9421026BEC72E08DEB92E00E94390332
S1130490E2EDF2E0938382839183808388E792E0A4
S11304A09F938F930E948403CE0101960E9466005D
S11304B00F900F9086B18E7F86B987B1816087B91E
S11304C086B18B7F86B987B1846087B987B38B7F08
S11304D087BBE980FA800B811C812D813E814F818D
S11304E0588569857A858B859C850E946301292FAF
S11304F0092E000C330B3F939F93282F082E000CDA
S1130500330B3F938F9387E892E09F938F930E94DE
S113051084030E94E8019F938F938AEA92E09F9359
S11305208F930E9484032FEF8FEF9DE12150804031
S11305309040E1F700C000000FB6F894DEBF0FBE94
S1130540CDBFB8CF85B7806885BF80B7806280BFD4
S11305500895FB0180830895FC018081089590BD76
S113056089B98BB18D7F8BB988E18AB986E880BD62
S113057008955D9BFECF8CB90895CF93C82F8A3020
S113058019F48DE00E94B9028C2F0E94B90280E018
S113059090E0CF9108955F9BFECF8CB190E00895D9
S11305A097FB072E16F4009407D077FD09D00E941C
S11305B0030307FC05D03EF4909581959F4F089561
S11305C0709561957F4F0895052E97FB1EF4009456
S11305D00E94FB0257FD07D00E94170307FC03D0BB
S11305E04EF40C94FB0250954095309521953F4F65
S11305F04F4F5F4F089590958095709561957F4F0B
S11306008F4F9F4F0895AA1BBB1B51E107C0AA1F20
S1130610BB1FA617B70710F0A61BB70B881F991F9F
S11306205A95A9F780959095BC01CD010895A1E252
S11306301A2EAA1BBB1BFD010DC0AA1FBB1FEE1F58
S1130640FF1FA217B307E407F50720F0A21BB30BA3
S1130650E40BF50B661F771F881F991F1A9469F71F
S113066060957095809590959B01AC01BD01CF017B
S113067008950F931F93CF93DF93009731F461157F
S1130680710519F480E090E03AC08B01EC016EE052
S113069070E081E090E00E94AB05FC01892B91F3AE
S11306A080E883830115110571F01387028781E8BF
S11306B083838091D2029091D302892B21F4F09309
S11306C0D302E093D2022097C9F0D187C0878381F7
S11306D0826083838091D4029091D502892B71F436
S11306E0F093D502E093D4028091D6029091D70280
S11306F0892B21F4F093D702E093D602CF01DF9146
S1130700CF911F910F910895A0E0B0E0EAE8F3E0E3
S11307100C94AF07AE014B5F5F4FFA016191719189
S1130720AF018091D4029091D5020E94CA03E2E005
S11307300C94CB070F931F93CF93DF93E091D402D4
S1130740F091D502238121FF1BC08C01D0E0C0E0D1
S1130750F80181918F016091D4027091D502DB017F
S11307601896ED91FC911997882331F00995892BFE
S113077079F3DFEFCFEFECCF8AE00995892B19F0FD
S11307808FEF9FEF02C08D2F9C2FDF91CF911F9190
S11307900F910895ABE0B0E0E0EDF3E00C949F0717
S11307A06C017B018A01FC0117821682838181FF1F
S11307B0CCC1CE0101963C01F6019381F70193FD72
S11307C0859193FF81917F01882309F4BAC1853211
S11307D039F493FD859193FF81917F01853229F44A
S11307E0B60190E00E940507E7CF912C212C312C13
S11307F0FFE1F315D8F08B3279F038F4803279F0D8
S11308008332A1F4232D20611DC08D3261F0803329
S113081069F4232D216016C0832D8260382EE32DC8
S1130820E4603E2E2AC0F32DF8601DC037FC2DC0B5
S113083020ED280F2A3040F08E32B9F436FC81C105
S1130840232D2064322E19C036FE06C08AE0989EFD
S1130850200D1124922E11C0EAE02E9E200D1124A9
S1130860222EF32DF0623F2E08C08C3621F4832D06
S11308708068382E02C0883641F4F70193FD8591D3
S113088093FF81917F018111B3CF982F9F7D955460
S1130890933028F40C5F1F4F9FE399830DC0833678
S11308A031F0833771F0833509F059C021C0F80164
S11308B0808189830E5F1F4F88248394912C530178
S11308C013C02801F2E04F0E511CF801A080B18042
S11308D036FE03C0692D70E002C06FEF7FEFC501E3
S11308E00E94FA064C018201F32DFF773F2E16C0B9
S11308F0280122E0420E511CF801A080B18036FE8E
S113090003C0692D70E002C06FEF7FEFC5010E9444
S1130910E8064C01F32DF0683F2E820133FC1BC026
S1130920822D90E088169906B0F4B60180E290E03A
S11309300E9405072A94F4CFF50137FC859137FE10
S113094081915F01B60190E00E94050721102A946D
S113095021E0821A91088114910471F7E8C0843669
S113096011F0893641F5F80137FE07C060817181C5
S1130970828193810C5F1F4F08C060817181072EB3
S1130980000C880B990B0E5F1F4FF32DFF763F2E43
S113099097FF09C090958095709561957F4F8F4F13
S11309A09F4FF0683F2E2AE030E0A3010E944107E8
S11309B0882E861845C0853731F4232D2F7EB22E1C
S11309C02AE030E025C0932D997FB92E8F36C1F0EF
S11309D018F4883579F0B5C0803719F0883721F0DC
S11309E0B0C0E92FE061BE2EB4FE0DC0FB2DF46053
S11309F0BF2E09C034FE0AC0292F2660B22E06C0BD
S1130A0028E030E005C020E130E002C020E132E01F
S1130A10F801B7FE07C060817181828193810C5F08
S1130A201F4F06C06081718180E090E00E5F1F4F10
S1130A30A3010E944107882E8618FB2DFF773F2EC5
S1130A4036FE0DC0232D2E7FA22E891458F434FEB9
S1130A500BC032FC09C0832D8E7EA82E05C0B82C95
S1130A60A32C03C0B82C01C0B92CA4FE0FC0FE01F6
S1130A70E80DF11D8081803321F49A2D997EA92EF1
S1130A8009C0A2FE06C0B394B39404C08A2D86782C
S1130A9009F0B394A3FC11C0A0FE06C0B21488F4FC
S1130AA0280C922C9B180EC0B21460F4B60180E29C
S1130AB090E00E940507B394F7CFB21418F42B18F2
S1130AC002C0982C212CA4FE10C0B60180E390E053
S1130AD00E940507A2FE17C0A1FC03C088E790E0AE
S1130AE002C088E590E0B6010CC08A2D867859F0E2
S1130AF0A1FE02C08BE201C080E2A7FC8DE2B60138
S1130B0090E00E940507891438F4B60180E390E070
S1130B100E9405079A94F7CF8A94F301E80DF11D1A
S1130B208081B60190E00E9405078110F5CF222054
S1130B3009F442CEB60180E290E00E9405072A94AF
S1130B40F6CFF6018681978102C08FEF9FEF2B9637
S1130B50E2E10C94BB070F931F93CF93DF93869F1F
S1130B608001879F100D969F100D1124C8010E94CB
S1130B70C705EC01009729F0A80160E070E00E942D
S1130B80F306CE01DF91CF911F910F9108950F933A
S1130B901F93CF93DF938230910510F482E090E0AD
S1130BA0E091DA02F091DB0220E030E0A0E0B0E076
S1130BB0309719F1408151810281138148175907F7
S1130BC0C8F08417950769F4109731F012960C93C6
S1130BD0129713961C9327C00093DA021093DB023A
S1130BE022C02115310519F04217530718F49A0150
S1130BF0BD01EF01DF01F801DBCF21153105F9F06B
S1130C00281B390B2430310580F48A819B816115BE
S1130C10710521F0FB019383828304C09093DB026E
S1130C208093DA02FE01329644C0FE01E20FF31F04
S1130C308193919322503109398328833AC02091BA
S1130C40D8023091D902232B41F420910201309132
S1130C5003013093D9022093D802209100013091EE
S1130C6001012115310541F42DB73EB7409104012E
S1130C7050910501241B350BE091D802F091D90263
S1130C80E217F307A0F42E1B3F0B2817390778F05F
S1130C90AC014E5F5F4F2417350748F04E0F5F1FBE
S1130CA05093D9024093D8028193919302C0E0E01B
S1130CB0F0E0CF01DF91CF911F910F910895CF9371
S1130CC0DF93009709F481C0FC01329713821282EA
S1130CD0A091DA02B091DB02109781F42081318176
S1130CE0820F931F2091D8023091D9022817390717
S1130CF051F5F093D902E093D80267C0ED0120E0EA
S1130D0030E0CE17DF0740F44A815B819E01411534
S1130D105105F1F0EA01F5CFD383C28340815181BB
S1130D20840F951FC817D90759F488819981840FB6
S1130D30951F0296918380838A819B81938382830A
S1130D402115310529F4F093DB02E093DA023DC06A
S1130D50E901FB83EA8349915991C40FD51FEC172C
S1130D60FD0761F480819181840F951F0296E9014A
S1130D7099838883828193819B838A83E0E0F0E076
S1130D8012968D919C911397009719F0FD01DC0147
S1130D90F7CF8D919C9111979D012E5F3F4F820F4C
S1130DA0931F2091D8023091D9022817390769F48A
S1130DB0309729F41092DB021092DA0202C01382F7
S1130DC01282B093D902A093D802DF91CF910895F3
S1130DD0FC010590615070400110D8F78095909502
S1130DE08E0F9F1F0895DC0101C06D934150504048
S1130DF0E0F70895FC016150704001900110D8F7AC
S1130E00809590958E0F9F1F08950F931F93CF93F6
S1130E10DF93FB01238121FD03C08FEF9FEF2CC0E3
S1130E2022FF16C04681578124813581421753071A
S1130E3044F4A081B1819D012F5F3F4F3183208312
S1130E408C93268137812F5F3F4F3783268314C0CD
S1130E508B01EC01FB010084F185E02D0995892BC0
S1130E60E1F6D80116968D919C91179701961796E5
S1130E709C938E931697CE01DF91CF911F910F9182
S1130E800895FA01AA27283051F1203181F1E8941C
S1130E906F936E7F6E5F7F4F8F4F9F4FAF4FB1E069
S1130EA03ED0B4E03CD0670F781F891F9A1FA11D64
S1130EB0680F791F8A1F911DA11D6A0F711D811D65
S1130EC0911DA11D20D009F468943F912AE0269F2A
S1130ED011243019305D3193DEF6CF010895462F89
S1130EE04770405D4193B3E00FD0C9F7F6CF462F6A
S1130EF04F70405D4A3318F0495D31FD40524193D3
S1130F0002D0A9F7EACFB4E0A6959795879577958F
S1130F106795BA95C9F700976105710508959B0116
S1130F20AC010A2E06945795479537952795BA959F
S1130F30C9F7620F731F841F951FA01D08952F9278
S1130F403F924F925F926F927F928F929F92AF9255
S1130F50BF92CF92DF92EF92FF920F931F93CF93A2
S1130F60DF93CDB7DEB7CA1BDB0B0FB6F894DEBF39
S1130F700FBECDBF09942A88398848885F846E845F
S1130F807D848C849B84AA84B984C884DF80EE80A9
S1130F90FD800C811B81AA81B981CE0FD11D0FB6B2
S1130FA0F894DEBF0FBECDBFED010895F894FFCFD6
S1130FB00000DC0220004574617020313A20547234
S1130FC07A796D616A206A6F79737469636B2077CB
S1130FD020706F7A79636A69206E65757472616CCA
S1130FE06E656A2E00506F7A79636A61206E65754A
S1130FF07472616C6E6120757374616C6F6E613AAA
S113100020785F6F6666736574203D2025642C200C
S1131010795F6F6666736574203D2025640A004518
S113102074617020323A2050727A657375F1206AC7
S11310306F79737469636B206D616B73796D616C27
S11310406E69652077206C65776F2C206120706F46
S113105074656D207720707261776F2E005761720E
S1131060746F9C636920583A20785F6D696E203DE7
S11310702025642C20785F6D6178203D2025640A4A
S1131080004574617020333A2050727A657375F1AB
S1131090206A6F79737469636B206D616B73796D0A
S11310A0616C6E696520772064F3B32C2061207035
S11310B06F74656D20772067F372EA2E00576172B2
S11310C0746F9C636920593A20795F6D696E203D85
S11310D02025642C20795F6D6178203D2025640AE9
S11310E0004B616C69627261636A61207A616B6F43
S11310F0F1637A6F6E6121005249474854004C45B0
S1131100465400555000444F574E004E45555452D6
S1131110414C005374617274696E672041444320EA
S1131120746573742E2E2E004920616D20707269CF
S11311306E7466210A0D00506F736974696F6E20B6
S1131140783A202564202C20506F736974696F6E7F
S113115020793A202564200A0D00506F7369746960
S11311606F6E206F66206A6F79737469636B3A20BF
S109117025730A0D0000C6
S9030000FC
