S013000050696E506F6E6747616D652E73726563DC
S11300000C94B4010C94D1010C94D1010C94D10141
S11300100C94D1010C94D1010C94D1010C94D10114
S11300200C94D1010C94D1010C94D1010C94D10104
S11300300C94D1010C94D1010C94D1010C94D101F4
S11300400C94D1010C94D1010C94D1010C94D101E4
S11300500C94D1010C94D1010C94D1010C94D101D4
S11300600C94D1010C94D1010C94D1010C94D101C4
S1130070000000000000000000065F5F06000000B2
S11300800007070007070000147F7F147F7F140018
S1130090242E6B6B3A120000466630180C66620020
S11300A0307A4F5D377A48000407030000000000EF
S11300B0001C3E63410000000041633E1C00000040
S11300C0082A3E1C1C3E2A0808083E3E0808000078
S11300D000A0E0600000000008080808080800000C
S11300E000006060000000006030180C060301008E
S11300F03E7F594D7F3E000042427F7F40400000DA
S1130100627359496F660000226349497F360000D3
S1130110181C16137F7F1000276745457D390000A2
S11301203C7E4B4979300000036371190F070000CE
S1130130367F49497F360000064F49693F1E00005B
S113014000006C6C0000000000A0EC6C00000000DB
S1130150081C366341000000141414141414000025
S1130160004163361C080000020351590F060000C9
S11301703E7F415D5D1F1E007C7E13137E7C00006C
S1130180417F7F49497F36001C3E63414163220021
S1130190417F7F41637F1C00417F7F495D41630054
S11301A0417F7F491D0103001C3E6341517372006E
S11301B07F7F08087F7F000000417F7F41000000AF
S11301C0307040417F3F0100417F7F081C7763000E
S11301D0417F7F41406070007F7F060C067F7F0077
S11301E07F7F060C187F7F001C3E6341633E1C002A
S11301F0417F7F49090F06001E3F21717F5E000089
S1130200417F7F19396F460026674D597B320000C4
S113021003417F7F410300007F7F40407F7F0000D8
S11302201F3F60603F1F00007F7F3018307F7F00DA
S113023063771C081C776300074F78784F0700002A
S11302406773594D47637100007F7F41410000008F
S11302500103060C183060000041417F7F0000005C
S1130260080C0603060C0800808080808080808053
S11302700000030704000000207454543C7840003C
S1130280413F7F44447C3800387C44446C2800005F
S1130290307848493F7F4000387C54545C18000053
S11302A0487E7F490302000098BCA4A4F87C0400A3
S11302B0417F7F08047C780000447D7D400000007D
S11302C040C484FD7D000000417F7F10386C4400F1
S11302D000417F7F400000007C7C0C180C7C78007F
S11302E07C7C04047C780000387C44447C38000026
S11302F084FCF8A4243C1800183C24A4F8FC8400D2
S1130300447C78441C180000485C54547424000055
S113031000043E7F442400003C7C40403C7C400080
S11303201C3C60603C1C00003C7C6030607C3C00F9
S1130330446C3810386C44009CBCA0A0FC7C0000C9
S11303404C64745C4C64000008083E774141000032
S113035000000077770000004141773E0808000064
S1130360020301030203010011241FBECFEFD4E0F6
S1130370DEBFCDBF14E0A0E0B1E0EAEBF8E102C0DB
S113038005900D92A03BB107D9F724E0A0EBB4E0AF
S113039001C01D92A03CB207E1F70E94B1040C9485
S11303A05B0C0C94000060E074E180680E94070517
S11303B089E999E00197F1F700C080E094E10E9497
S11303C00A0508954F925F926F927F928F929F9247
S11303D0AF92BF92CF92DF92EF92FF920F931F934F
S11303E0CF93DF934C0182E191E09F938F930E941E
S11303F009088FEF9FE50197F1F700C000008DE237
S113040091E09F938F930E940908EFEFFFE53197E6
S1130410F1F700C0000081E491E09F938F930E9464
S113042009088FEF9FE50197F1F700C0000082E60D
S113043091E09F938F930E940908EFEFFFE53197B6
S1130440F1F700C0000080E891E09F938F930E9431
S113045009088FEF9FE50197F1F700C000008FE9CD
S113046091E09F938F930E940908EFEFFFE5319786
S1130470F1F700C000008BEB91E09F938F930E94F3
S11304800908FFEF2FE78AE0F15020408040E1F7B0
S113049000C000C089ED91E00E941F0886EE91E043
S11304A00E941F08EFEFFFE53197F1F700C000004D
S11304B083EF91E00E941F088FEF9FE50197F1F70A
S11304C000C000008FEF91E00E941F088CE092E0D2
S11304D00E941F08EFEFFFE53197F1F700C000001D
S11304E08DE192E00E941F088FEF9FE50197F1F7DD
S11304F000C0000080E392E00E941F08EFEFFFE5D8
S11305003197F1F700C0000086E492E00E941F08D2
S11305108FEF9FE50197F1F700C0000084E692E0B9
S11305200E941F0880EA92E09F938F930E9409081B
S11305309FEFEFEFFEE09150E040F040E1F700C0A4
S113054000008DB79EB740960FB6F8949EBF0FBEBD
S11305508DBFC0E0D0E0C12CD12C7601412C512CB0
S1130560320115C080E00E94D301182F81E00E945F
S1130570D301410E511C611C711CC80ED11CE11C1D
S1130580F11CE9E9F9E03197F1F700C02196C43F85
S1130590F1E0DF0738F3C301B20124EF31E040E0BA
S11305A050E00E946007C22FD32FF40120833183CF
S11305B0C701B60124EF31E040E050E00E9460073B
S11305C0F401228333833F932F93DF93CF938FEAF6
S11305D092E09F938F930E940908FFEF2FE787E033
S11305E0F15020408040E1F700C0000084EE92E02A
S11305F00E941F088BE193E09F938F930E94090848
S11306009FEFEFEFFDE19150E040F040E1F700C0D3
S113061000008DB79EB708960FB6F8949EBF0FBE24
S11306208DBFC0E0D0E0AA24AA94B12C09C080E018
S11306300E94D30190E08A159B0508F45C01219681
S1130640C43F91E0D90798F3EFEFFFE727E0E150CB
S1130650F0402040E1F700C000008AE293E00E94ED
S11306601F088BE193E09F938F930E9409088FEFFB
S11306709FEFEDE181509040E040E1F700C00000C1
S11306800F900F90C0E0D0E0C12CD12C09C080E0C5
S11306900E94D30190E0C816D90608F46C01219693
S11306A0C43FF1E0DF0798F32FEF8FE797E0215085
S11306B080409040E1F700C00000DF92CF92BF92EB
S11306C0AF9282E693E09F938F930E940908EFEF25
S11306D0FFE727E0E150F0402040E1F700C00000D0
S11306E084E893E00E941F088BE193E09F938F932B
S11306F00E9409088FEF9FEFEDE181509040E040A8
S1130700E1F700C000008DB79EB708960FB6F894C5
S11307109EBF0FBE8DBFC0E0D0E000E010E009C076
S113072081E00E94D30190E00817190708F48C01B6
S11307302196C43F91E0D90798F3EFEFFFE727E054
S1130740E150F0402040E1F700C0000089EB93E065
S11307500E941F088BE193E09F938F930E940908E6
S11307608FEF9FEFEDE181509040E040E1F700C052
S113077000000F900F90C0E0D0E0EE24EA94F12C3A
S113078009C081E00E94D30190E08E159F0508F412
S11307907C012196C43FF1E0DF0798F32FEF8FE748
S11307A097E0215080409040E1F700C000001F9383
S11307B00F93FF92EF9280EF93E09F938F930E94A9
S11307C00908F401B186A086D582C482F386E28644
S11307D01783068382E194E00E941F080F900F9014
S11307E00F900F900F900F90C401DF91CF911F9144
S11307F00F91FF90EF90DF90CF90BF90AF909F90BC
S11308008F907F906F905F904F900895EF92FF923A
S11308100F931F93CF93DF93CDB7DEB72C970FB60B
S1130820F894DEBF0FBECDBFE982FA820B831C832E
S11308302D833E834F83588769877A878B879C876C
S113084080E00E94D301082F10E081E00E94D301D0
S1130850E82FF0E049815A819801241B350B0B8164
S11308601C81E01BF10B1216130674F464E6629FFC
S1130870C001639F900D11246D817E81641B750BF3
S11308800E944C07262F0EC064E6629FC001639F3E
S1130890900D112429853A85BA01621B730B0E94BD
S11308A04C07262F1E161F0674F434E63E9FC00123
S11308B03F9F900D11246F817885601B710B0E94FE
S11308C04C07962F0EC034E63E9FC0013F9F900D0B
S11308D011244B855C85B801641B750B0E944C0781
S11308E0962F25360CF024E62C390CF42CE9953699
S11308F00CF094E69C390CF49CE9822F2C960FB6EC
S1130900F894DEBF0FBECDBFDF91CF911F910F9141
S1130910FF90EF9008958F314CF4823E54F09F3154
S11309205CF4923E64F489E394E008958BE294E0ED
S1130930089581E394E0089586E394E008958EE3B6
S113094094E0089581B3806281BB8FB58C7F8FBDA5
S11309508FB580648FBD8EB589608EBD1ABC1BBCFB
S11309600895CF93DF93CDB7DEB76A970FB6F894A7
S1130970DEBF0FBECDBF0E9400058FE190E00E9454
S11309802B070E94A20467E477E089E397E00E94C2
S1130990BE079E012F5F3F4F79012EE0F7011192B0
S11309A02A95E9F722E02C8327ED35E03A87298759
S11309B006EB14E0F8019383828391838083CE0154
S11309C00F960E94E2018CE0FE013F96A6E0B1E0A2
S11309D001900D928A95E1F7F801F382E2820E9478
S11309E017050E945A0580E090E00E94F4058FEFFD
S11309F09FE50197F1F700C000000E94B906FDCF02
S1130A0085B7806885BF80B7806280BF0895FB0189
S1130A1080830895FC018081089560E070E10E9464
S1130A200705089560E072E10E94070508958EEAC3
S1130A300E940D0581EA0E940D058AED0E940D05B4
S1130A4082E10E940D0588EC0E940D0588EA0E944F
S1130A500D058FE30E940D0585ED0E940D0580E8CC
S1130A600E940D0581E80E940D0580E50E940D0598
S1130A7089ED0E940D0581E20E940D0580E20E942D
S1130A800D0582E00E940D058BED0E940D0580E3AB
S1130A900E940D058DEA0E940D0580E00E940D055F
S1130AA084EA0E940D0586EA0E940D058FEA0E94E1
S1130AB00D050895CF93DF93D0E013C080EB8D0F25
S1130AC00E940D0580E00E940D0580E10E940D0545
S1130AD0C0E004C080E00E941205CF5FCC23D4F7AD
S1130AE0DF5FD83058F3DF91CF910895806B0E9477
S1130AF00D050895CF93C82F8F700E940D058C2F7C
S1130B0082958F7080610E940D05CF910895CF93D7
S1130B10C62F0E9476058C2F0E947A05CF910895E6
S1130B20CF93DF93962FD0EED80F642F892F0E9496
S1130B308705C0E016C0ED2FF0E0EE0FFF1FEE0FAB
S1130B40FF1FEE0FFF1FEC0FF11DE059FF4F8491C3
S1130B500E9412058FEF9FE20197F1F700C0000099
S1130B60CF5FC83040F3DF91CF9108950F931F9367
S1130B70CF93DF938C01D62FC42F10C00F5F1F4F6C
S1130B804C2F6D2F0E949005C85FC93738F0DF5F86
S1130B90D83010F4C0E002C0C0E0D0E0F801808199
S1130BA08111ECCFDF91CF911F910F9108958A307D
S1130BB041F48091B1048F5F8093B1041092B0042A
S1130BC010C08D3019F41092B0040BC04091B004E1
S1130BD06091B1040E9490058091B004885F809375
S1130BE0B00480E090E00895CF93DF93EC0140E0FF
S1130BF060E08BE594E00E94B60540E061E083E6A6
S1130C0094E00E94B60540E062E08BE694E00E9426
S1130C10B605209739F440E060E083E794E00E9451
S1130C20B60512C0C130D10539F440E061E083E774
S1130C3094E00E94B60508C0229731F440E062E0D7
S1130C4083E794E00E94B605DF91CF910895CF9396
S1130C50DF93EC010E945A05209739F440E060E0EC
S1130C6085E794E00E94B60512C0C130D10539F47D
S1130C7040E060E082E894E00E94B60508C0229754
S1130C8031F440E060E08FE894E00E94B60540E073
S1130C9066E08CE994E00E94B605DF91CF91089557
S1130CA0CF92DF92EF92FF920F931F93CF93DF9334
S1130CB06C0181E090E09093B3048093B204C60188
S1130CC00E94270640C0E090A304F090A404009181
S1130CD0A5041091A6042091A7043091A804409182
S1130CE0A9045091AA046091AB047091AC04809162
S1130CF0AD049091AE040E940604EC010E948B04A2
S1130D0066E374E00E94B507892B49F0CE010E9486
S1130D108B0469E374E00E94B507892B61F4C60172
S1130D200E9427062FEF8FEF92E0215080409040E1
S1130D30E1F700C000C0B29906C01092B30410924B
S1130D40B2040E945A058091B2049091B304892B95
S1130D5009F0B9CF8091B4049091B5040E94F405D0
S1130D60DF91CF911F910F91FF90EF90DF90CF9083
S1130D700895EF92FF920F931F93CF93DF93E09028
S1130D80A304F090A4040091A5041091A60420915A
S1130D90A7043091A8044091A9045091AA04609139
S1130DA0AB047091AC048091AD049091AE040E94A8
S1130DB00604EC010E948B0466E374E00E94B5070C
S1130DC0892BC9F48091B4049091B504029663E030
S1130DD070E00E944C079093B5048093B4040E9481
S1130DE0F4052FEF8FEF92E0215080409040E1F71F
S1130DF000C000C021C0CE010E948B0469E374E0EE
S1130E000E94B507892BC1F48091B4049091B50474
S1130E10019663E070E00E944C079093B5048093C0
S1130E20B4040E94F4052FEF8FEF92E0215080402C
S1130E309040E1F700C000C0B29906C08091B404AC
S1130E409091B5040E945006DF91CF911F910F91AC
S1130E50FF90EF90089590BD89B98BB18D7F8BB9C8
S1130E6088E18AB986E880BD08955D9BFECF8CB980
S1130E700895CF93C82F8A3019F48DE00E94350766
S1130E808C2F0E94350780E090E0CF9108955F9BFE
S1130E90FECF8CB190E0089597FB072E16F40094D2
S1130EA007D077FD09D00E947F0707FC05D03EF4E8
S1130EB0909581959F4F0895709561957F4F089502
S1130EC0052E97FB1EF400940E94770757FD07D068
S1130ED00E94930707FC03D04EF40C9477075095B7
S1130EE04095309521953F4F4F4F5F4F0895909512
S1130EF08095709561957F4F8F4F9F4F0895AA1BE2
S1130F00BB1B51E107C0AA1FBB1FA617B70710F0F0
S1130F10A61BB70B881F991F5A95A9F78095909522
S1130F20BC01CD010895A1E21A2EAA1BBB1BFD0131
S1130F300DC0AA1FBB1FEE1FFF1FA217B307E407B4
S1130F40F50720F0A21BB30BE40BF50B661F771F0C
S1130F50881F991F1A9469F76095709580959095EC
S1130F609B01AC01BD01CF010895FB01DC018D9112
S1130F70019080190110D9F3990B08950F931F93D1
S1130F80CF93DF93009731F46115710519F480E074
S1130F9090E03AC08B01EC016EE070E081E090E0FB
S1130FA00E94300AFC01892B91F380E883830115A8
S1130FB0110571F01387028781E883838091B60459
S1130FC09091B704892B21F4F093B704E093B6040D
S1130FD02097C9F0D187C087838182608383809101
S1130FE0B8049091B904892B71F4F093B904E09397
S1130FF0B8048091BA049091BB04892B21F4F09336
S1131000BB04E093BA04CF01DF91CF911F910F91FC
S11310100895A0E0B0E0EFE0F8E00C94340CAE01E9
S11310204B5F5F4FFA0161917191AF018091B804F8
S11310309091B9040E944F08E2E00C94500C0F9375
S11310401F93CF93DF93E091B804F091B904238107
S113105021FF1BC08C01D0E0C0E0F80181918F0119
S11310606091B8047091B904DB011896ED91FC917C
S11310701997882331F00995892B79F3DFEFCFEFA6
S1131080ECCF8AE00995892B19F08FEF9FEF02C00E
S11310908D2F9C2FDF91CF911F910F910895ABE07D
S11310A0B0E0E5E5F8E00C94240C6C017B018A01C6
S11310B0FC0117821682838181FFCCC1CE01019687
S11310C03C01F6019381F70193FD859193FF819192
S11310D07F01882309F4BAC1853239F493FD8591DF
S11310E093FF81917F01853229F4B60190E00E943B
S11310F08A0BE7CF912C212C312CFFE1F315D8F08A
S11311008B3279F038F4803279F08332A1F4232DD4
S113111020611DC08D3261F0803369F4232D21607C
S113112016C0832D8260382EE32DE4603E2E2AC043
S1131130F32DF8601DC037FC2DC020ED280F2A3098
S113114040F08E32B9F436FC81C1232D2064322E56
S113115019C036FE06C08AE0989E200D1124922EF6
S113116011C0EAE02E9E200D1124222EF32DF062F0
S11311703F2E08C08C3621F4832D8068382E02C09F
S1131180883641F4F70193FD859193FF81917F01A6
S11311908111B3CF982F9F7D9554933028F40C5F21
S11311A01F4F9FE399830DC0833631F0833771F06D
S11311B0833509F059C021C0F801808189830E5F0D
S11311C01F4F88248394912C530113C02801F2E00B
S11311D04F0E511CF801A080B18036FE03C0692D6A
S11311E070E002C06FEF7FEFC5010E947F0B4C01DE
S11311F08201F32DFF773F2E16C0280122E0420E14
S1131200511CF801A080B18036FE03C0692D70E046
S113121002C06FEF7FEFC5010E946D0B4C01F32DEF
S1131220F0683F2E820133FC1BC0822D90E08816AB
S11312309906B0F4B60180E290E00E948A0B2A94E9
S1131240F4CFF50137FC859137FE81915F01B6013A
S113125090E00E948A0B21102A9421E0821A9108BE
S11312608114910471F7E8C0843611F0893641F590
S1131270F80137FE07C060817181828193810C5F20
S11312801F4F08C060817181072E000C880B990BD9
S11312900E5F1F4FF32DFF763F2E97FF09C09095E9
S11312A08095709561957F4F8F4F9F4FF0683F2ECB
S11312B02AE030E0A3010E94C60B882E861845C0A0
S11312C0853731F4232D2F7EB22E2AE030E025C05D
S11312D0932D997FB92E8F36C1F018F4883579F0A3
S11312E0B5C0803719F0883721F0B0C0E92FE0612C
S11312F0BE2EB4FE0DC0FB2DF460BF2E09C034FE1B
S11313000AC0292F2660B22E06C028E030E005C0AE
S113131020E130E002C020E132E0F801B7FE07C06E
S113132060817181828193810C5F1F4F06C060814F
S1131330718180E090E00E5F1F4FA3010E94C60BF5
S1131340882E8618FB2DFF773F2E36FE0DC0232DE9
S11313502E7FA22E891458F434FE0BC032FC09C02F
S1131360832D8E7EA82E05C0B82CA32C03C0B82CC8
S113137001C0B92CA4FE0FC0FE01E80DF11D80814F
S1131380803321F49A2D997EA92E09C0A2FE06C0AD
S1131390B394B39404C08A2D867809F0B394A3FC63
S11313A011C0A0FE06C0B21488F4280C922C9B181D
S11313B00EC0B21460F4B60180E290E00E948A0B81
S11313C0B394F7CFB21418F42B1802C0982C212C24
S11313D0A4FE10C0B60180E390E00E948A0BA2FE36
S11313E017C0A1FC03C088E790E002C088E590E044
S11313F0B6010CC08A2D867859F0A1FE02C08BE29A
S113140001C080E2A7FC8DE2B60190E00E948A0B45
S1131410891438F4B60180E390E00E948A0B9A9410
S1131420F7CF8A94F301E80DF11D8081B60190E0B5
S11314300E948A0B8110F5CF222009F442CEB60116
S113144080E290E00E948A0B2A94F6CFF60186810E
S1131450978102C08FEF9FEF2B96E2E10C94400C32
S11314600F931F93CF93DF93869F8001879F100D67
S1131470969F100D1124C8010E944C0AEC0100979C
S113148029F0A80160E070E00E94780BCE01DF91A2
S1131490CF911F910F9108950F931F93CF93DF93D3
S11314A08230910510F482E090E0E091BE04F09166
S11314B0BF0420E030E0A0E0B0E0309719F14081B3
S11314C051810281138148175907C8F08417950781
S11314D069F4109731F012960C93129713961C939B
S11314E027C00093BE041093BF0422C02115310508
S11314F019F04217530718F49A01BD01EF01DF01F7
S1131500F801DBCF21153105F9F0281B390B243004
S1131510310580F48A819B816115710521F0FB01FD
S11315209383828304C09093BF048093BE04FE011E
S1131530329644C0FE01E20FF31F8193919322502F
S11315403109398328833AC02091BC043091BD0409
S1131550232B41F420910201309103013093BD0407
S11315602093BC0420910001309101012115310523
S113157041F42DB73EB74091040150910501241B5D
S1131580350BE091BC04F091BD04E217F307A0F41D
S11315902E1B3F0B2817390778F0AC014E5F5F4FC5
S11315A02417350748F04E0F5F1F5093BD04409336
S11315B0BC048193919302C0E0E0F0E0CF01DF919D
S11315C0CF911F910F910895CF93DF93009709F462
S11315D081C0FC01329713821282A091BE04B091A3
S11315E0BF04109781F420813181820F931F2091D1
S11315F0BC043091BD042817390751F5F093BD049C
S1131600E093BC0467C0ED0120E030E0CE17DF07B3
S113161040F44A815B819E0141155105F1F0EA01D4
S1131620F5CFD383C28340815181840F951FC8179E
S1131630D90759F488819981840F951F0296918363
S113164080838A819B81938382832115310529F4C8
S1131650F093BF04E093BE043DC0E901FB83EA8339
S113166049915991C40FD51FEC17FD0761F480818E
S11316709181840F951F0296E90199838883828161
S113168093819B838A83E0E0F0E012968D919C9194
S11316901397009719F0FD01DC01F7CF8D919C9110
S11316A011979D012E5F3F4F820F931F2091BC0421
S11316B03091BD042817390769F4309729F4109242
S11316C0BF041092BE0402C013821282B093BD0400
S11316D0A093BC04DF91CF910895FC010590615063
S11316E070400110D8F7809590958E0F9F1F089534
S11316F0DC0101C06D9341505040E0F70895FC01B6
S11317006150704001900110D8F7809590958E0F2C
S11317109F1F08950F931F93CF93DF93FB012381A2
S113172021FD03C08FEF9FEF2CC022FF16C046811E
S11317305781248135814217530744F4A081B18134
S11317409D012F5F3F4F318320838C932681378106
S11317502F5F3F4F3783268314C08B01EC01FB01BD
S11317600084F185E02D0995892BE1F6D8011696C0
S11317708D919C911797019617969C938E9316972B
S1131780CE01DF91CF911F910F910895FA01AA27FD
S1131790283051F1203181F1E8946F936E7F6E5FB0
S11317A07F4F8F4F9F4FAF4FB1E03ED0B4E03CD05E
S11317B0670F781F891F9A1FA11D680F791F8A1F41
S11317C0911DA11D6A0F711D811D911DA11D20D0A8
S11317D009F468943F912AE0269F11243019305D62
S11317E03193DEF6CF010895462F4770405D419353
S11317F0B3E00FD0C9F7F6CF462F4F70405D4A33A0
S113180018F0495D31FD4052419302D0A9F7EACF67
S1131810B4E0A6959795879577956795BA95C9F796
S113182000976105710508959B01AC010A2E069489
S11318305795479537952795BA95C9F7620F731F42
S1131840841F951FA01D08952F923F924F925F927F
S11318506F927F928F929F92AF92BF92CF92DF92BC
S1131860EF92FF920F931F93CF93DF93CDB7DEB721
S1131870CA1BDB0B0FB6F894DEBF0FBECDBF0994B5
S11318802A88398848885F846E847D848C849B840C
S1131890AA84B984C884DF80EE80FD800C811B811A
S11318A0AA81B981CE0FD11D0FB6F894DEBF0FBE49
S10D18B0CDBFED010895F894FFCFB9
S11318BA0000C004200000000000FF00FF00000038
S11318CA00005072657061726520666F72206361F0
S11318DA6C6962726174696F6E210A0D00536571D5
S11318EA75656E63652077696C6C2062653A0A0DCA
S11318FA003129204E65757472616C20706F7369AA
S113190A74696F6E202D2031207365636F6E640ACB
S113191A0D003229204C65667420706F73697469EE
S113192A6F6E202D2032207365636F6E640A0D007A
S113193A332920526967687420706F736974696FF8
S113194A6E202D2032207365636F6E640A0D003495
S113195A2920557020706F736974696F6E202D2069
S113196A32207365636F6E640A0D00352920446F53
S113197A776E20706F736974696F6E202D20322020
S113198A7365636F6E640A0D0020202020202020D6
S113199A20205F5F200020202020202020202820D3
S11319AA2029002020202020202020207C7C0020A8
S11319BA20202020202020207C7C20002020202081
S11319CA5F5F5F7C22227C5F5F2E2E5F00202020D7
S11319DA2F5F5F5F5F5F5F5F5F5F5F5F5F5C2000DA
S11319EA2020205C5F5F5F5F5F5F5F5F5F5F5F5FB9
S11319FA2F7E7E7E2E00205354415254494E472056
S1131A0A5448452043414C4942524154494F4E217E
S1131A1A202020005374657020313A205365747471
S1131A2A696E67204E45555452414C20706F736954
S1131A3A74696F6E3A20446F206E6F74206D6F76EE
S1131A4A6520746865206A6F79737469636B2E0004
S1131A5A576169742031207365636F6E6421004E87
S1131A6A65757472616C20706F736974696F6E2026
S1131A7A736574213A20785F6F6666736574203DD6
S1131A8A2025642C20795F6F6666736574203D2077
S1131A9A25640A005374657020323A2043616C69E4
S1131AAA62726174696F6E207820617869733A2072
S1131ABA4D6F7665206A6F79737469636B20696EFA
S1131ACA206D6178204C4546542E00576169742074
S1131ADA32207365636F6E6421005374657020331A
S1131AEA3A2043616C6962726174696F6E2078206E
S1131AFA617869733A204D6F7665206A6F797374D9
S1131B0A69636B20696E206D617820524947485495
S1131B1A2E0056616C75657320583A20785F6D699A
S1131B2A6E203D2025642C20785F6D6178203D204D
S1131B3A25640A005374657020343A2043616C6941
S1131B4A62726174696F6E207920617869733A20D0
S1131B5A4D6F7665206A6F79737469636B20696E59
S1131B6A206D61782055502E005374657020353AE3
S1131B7A2043616C6962726174696F6E20792061B5
S1131B8A7869733A204D6F7665206A6F7973746940
S1131B9A636B20696E206D617820444F574E2E0086
S1131BAA56616C75657320593A20795F6D696E20A8
S1131BBA3D2025642C20795F6D6178203D202564C1
S1131BCA0A0043616C6962726174696F6E20697399
S1131BDA2046494E495348454421005249474854EE
S1131BEA004C45465400555000444F574E004E454C
S1131BFA555452414C005374617274696E672041A2
S1131C0A444320746573742E2E2E00205061676538
S1131C1A20310020506167652032002050616765D9
S1131C2A2033003E0049542049532050414745205F
S1131C3A3100495420495320504147452032004934
S1131C4A5420495320504147452033003E204261E5
S1131C5A636B0000000000FF00FF000000000000AA
S9030000FC
