S013000050696E506F6E6747616D652E73726563DC
S11300000C9438000C9455000C9455000C94550035
S11300100C9455000C9455000C9455000C94550008
S11300200C9455000C9455000C9455000C945500F8
S11300300C9455000C9455000C9455000C945500E8
S11300400C9455000C9455000C9455000C945500D8
S11300500C9455000C9455000C9455000C945500C8
S11300600C9455000C9455000C9455000C945500B8
S113007011241FBECFEFD4E0DEBFCDBF13E0A0E05C
S1130080B1E0E8E6F0E102C005900D92A835B107B1
S1130090D9F723E0A8E5B3E001C01D92A236B20768
S11300A0E1F70E944F020C9432080C94000060E0C7
S11300B074E180680E94F60289E999E00197F1F7FA
S11300C000C080E094E10E94F90208954F925F928B
S11300D06F927F928F929F92AF92BF92CF92DF9254
S11300E0EF92FF920F931F93CF93DF934C0186E01F
S11300F091E00E94F6032FEF8FEF9EE021508040A5
S11301009040E1F700C00000C0E0D0E0C12CD12C49
S11301107601412C512C320115C080E00E94570019
S1130120182F81E00E945700410E511C611C711C64
S1130130C80ED11CE11CF11CE9E9F9E03197F1F793
S113014000C02196C43FF1E0DF0738F3C301B201D8
S113015024EF31E040E050E00E943103C22FD32F5E
S1130160F40120833183C701B60124EF31E040E07C
S113017050E00E943103F401228333833F932F9391
S1130180DF93CF9382E491E09F938F930E94E003E7
S113019087E791E00E94F603FFEF2FEF8EE0F15026
S11301A020408040E1F700C000000F900F900F90B6
S11301B00F900F900F90C0E0D0E0AA24AA94B12C25
S11301C009C080E00E94570090E08A159B0508F45E
S11301D05C012196C43F91E0D90798F38EEA91E03F
S11301E00E94F603EFEFFFEF2DE1E150F0402040D5
S11301F0E1F700C00000C0E0D0E0C12CD12C09C060
S113020080E00E94570090E0C816D90608F46C01FB
S11302102196C43F81E0D80798F3DF92CF92BF9232
S1130220AF9286EE91E09F938F930E94E00388E063
S113023092E00E94F6039FEFEFEFFEE09150E04062
S1130240F040E1F700C000000F900F900F900F9066
S11302500F900F90C0E0D0E000E010E009C081E012
S11302600E94570090E00817190708F48C012196A2
S1130270C43F21E0D20798F38DE392E00E94F60395
S11302808FEF9FEFEEE081509040E040E1F700C037
S11302900000C0E0D0E0EE24EA94F12C09C081E033
S11302A00E94570090E08E159F0508F47C0121966A
S11302B0C43FF1E0DF0798F31F930F93FF92EF928F
S11302C084E792E09F938F930E94E0032FEF8FEFD8
S11302D09BE0215080409040E1F700C000C0F40151
S11302E0B186A086D582C482F386E286178306830C
S11302F086E992E00E94F6030F900F900F900F9002
S11303000F900F90C401DF91CF911F910F91FF9037
S1130310EF90DF90CF90BF90AF909F908F907F90A1
S11303206F905F904F900895EF92FF920F931F93F9
S1130330CF93DF93CDB7DEB72C970FB6F894DEBF1B
S11303400FBECDBFE982FA820B831C832D833E83CB
S11303504F83588769877A878B879C8780E00E94C0
S11303605700082F10E081E00E945700E82FF0E0CA
S113037049815A819801241B350B0B811C81E01B98
S1130380F10B1216130674F464E6629FC001639FB6
S1130390900D11246D817E81641B750B0E941D03D9
S11303A0262F0EC064E6629FC001639F900D112446
S11303B029853A85BA01621B730B0E941D03262FFF
S11303C01E161F0674F434E63E9FC0013F9F900D35
S11303D011246F817885601B710B0E941D03962F79
S11303E00EC034E63E9FC0013F9F900D11244B8503
S11303F05C85B801641B750B0E941D03962F25367E
S11304000CF024E62C390CF42CE995360CF094E627
S11304109C390CF49CE9822F2C960FB6F894DEBF1D
S11304200FBECDBFDF91CF911F910F91FF90EF9041
S113043008958B304CF4863F54F09B305CF4963F27
S113044064F487EB92E0089589EA92E008958FEAD4
S113045092E0089584EB92E008958CEB92E0089585
S11304600E94570094E6899F90011124A1E8B0E806
S11304700E945003880F892F881F990B9195089526
S113048081B3806281BB8FB58C7F8FBD8FB5806453
S11304908FBD8EB589608EBD1ABC1BBC0895CF93E9
S11304A0DF93CDB7DEB72C970FB6F894DEBF0FBE3F
S11304B0CDBF0E94EF028FE190E00E94FC020E94F7
S11304C0400268E173E08AE093E00E949503E8E566
S11304D0F3E0938382839183808389ED92E09F93F9
S11304E08F930E94E003CE0101960E9466000F9054
S11304F00F9086B18E7F86B987B1816087B986B146
S11305008B7F86B987B1846087B987B38B7F87BBBC
S1130510E980FA800B811C812D813E814F815885B1
S113052069857A858B859C850E949401082F192FF3
S1130530892F990F990B9F931F93802F002E000CE6
S1130540990B9F930F9388EE92E09F938F930E9451
S1130550E003802F912F0E9419029F938F938BE0C9
S113056093E09F938F930E94E0032FEF4FEF5BE0A4
S1130570215040405040E1F700C000C082E00E949A
S1130580300224E630E0A901481B510987FD539548
S1130590CA019F934F9386E293E09F938F930E94A7
S11305A0E00383E00E943002282F082E000C330B56
S11305B03F938F938EE393E09F938F930E94E00386
S11305C05FEF8FEF9BE0515080409040E1F700C017
S11305D000C00FB6F894DEBF0FBECDBF8ACF85B77B
S11305E0806885BF80B7806280BF0895FB018083E7
S11305F00895FC018081089590BD89B98BB18D7FE8
S11306008BB988E18AB986E880BD08955D9BFECFE9
S11306108CB90895CF93C82F8A3019F48DE00E94C5
S113062006038C2F0E94060380E090E0CF9108958A
S11306305F9BFECF8CB190E0089597FB072E16F4D4
S1130640009407D077FD09D00E945F0307FC05D012
S11306503EF4909581959F4F0895709561957F4FD5
S11306600895052E97FB1EF400940E94480357FD3D
S113067007D00E94730307FC03D04EF40C94480384
S113068050954095309521953F4F4F4F5F4F0895BA
S113069090958095709561957F4F8F4F9F4F0895EA
S11306A0A29FB001B39FC001A39F700D811D1124AF
S11306B0911DB29F700D811D1124911D0895AA1BD7
S11306C0BB1B51E107C0AA1FBB1FA617B70710F039
S11306D0A61BB70B881F991F5A95A9F7809590956B
S11306E0BC01CD010895A1E21A2EAA1BBB1BFD017A
S11306F00DC0AA1FBB1FEE1FFF1FA217B307E407FD
S1130700F50720F0A21BB30BE40BF50B661F771F54
S1130710881F991F1A9469F7609570958095909534
S11307209B01AC01BD01CF0108950F931F93CF939B
S1130730DF93009731F46115710519F480E090E0BE
S11307403AC08B01EC016EE070E081E090E00E9421
S11307500706FC01892B91F380E8838301151105B9
S113076071F01387028781E8838380915803909105
S11307705903892B21F4F0935903E09358032097EC
S1130780C9F0D187C08783818260838380915A03B3
S113079090915B03892B71F4F0935B03E0935A030C
S11307A080915C0390915D03892B21F4F0935D03A8
S11307B0E0935C03CF01DF91CF911F910F910895D6
S11307C0A0E0B0E0E6EEF3E00C940B08AE014B5F62
S11307D05F4FFA0161917191AF0180915A03909139
S11307E05B030E942604E2E00C9427080F931F93F6
S11307F0CF93DF93E0915A03F0915B03238121FFB0
S11308001BC08C01D0E0C0E0F80181918F016091A0
S11308105A0370915B03DB011896ED91FC911997D3
S1130820882331F00995892B79F3DFEFCFEFECCFF3
S11308308AE00995892B19F08FEF9FEF02C08D2F65
S11308409C2FDF91CF911F910F910895ABE0B0E001
S1130850ECE2F4E00C94FB076C017B018A01FC01DF
S113086017821682838181FFCCC1CE0101963C019F
S1130870F6019381F70193FD859193FF81917F01A7
S1130880882309F4BAC1853239F493FD859193FF25
S113089081917F01853229F4B60190E00E946107BD
S11308A0E7CF912C212C312CFFE1F315D8F08B32BA
S11308B079F038F4803279F08332A1F4232D206169
S11308C01DC08D3261F0803369F4232D216016C080
S11308D0832D8260382EE32DE4603E2E2AC0F32D52
S11308E0F8601DC037FC2DC020ED280F2A3040F0E1
S11308F08E32B9F436FC81C1232D2064322E19C006
S113090036FE06C08AE0989E200D1124922E11C056
S1130910EAE02E9E200D1124222EF32DF0623F2EAC
S113092008C08C3621F4832D8068382E02C08836A6
S113093041F4F70193FD859193FF81917F0181112A
S1130940B3CF982F9F7D9554933028F40C5F1F4F9D
S11309509FE399830DC0833631F0833771F083357B
S113096009F059C021C0F801808189830E5F1F4FAF
S113097088248394912C530113C02801F2E04F0E74
S1130980511CF801A080B18036FE03C0692D70E0CF
S113099002C06FEF7FEFC5010E9456074C01820130
S11309A0F32DFF773F2E16C0280122E0420E511C82
S11309B0F801A080B18036FE03C0692D70E002C04A
S11309C06FEF7FEFC5010E9444074C01F32DF068DF
S11309D03F2E820133FC1BC0822D90E088169906BD
S11309E0B0F4B60180E290E00E9461072A94F4CF4B
S11309F0F50137FC859137FE81915F01B60190E0E6
S1130A000E94610721102A9421E0821A910881141E
S1130A10910471F7E8C0843611F0893641F5F80184
S1130A2037FE07C060817181828193810C5F1F4F03
S1130A3008C060817181072E000C880B990B0E5F32
S1130A401F4FF32DFF763F2E97FF09C09095809599
S1130A50709561957F4F8F4F9F4FF0683F2E2AE02E
S1130A6030E0A3010E949D07882E861845C0853773
S1130A7031F4232D2F7EB22E2AE030E025C0932DB1
S1130A80997FB92E8F36C1F018F4883579F0B5C046
S1130A90803719F0883721F0B0C0E92FE061BE2E0D
S1130AA0B4FE0DC0FB2DF460BF2E09C034FE0AC095
S1130AB0292F2660B22E06C028E030E005C020E1D0
S1130AC030E002C020E132E0F801B7FE07C06081E7
S1130AD07181828193810C5F1F4F06C06081718197
S1130AE080E090E00E5F1F4FA3010E949D07882EB7
S1130AF08618FB2DFF773F2E36FE0DC0232D2E7F4B
S1130B00A22E891458F434FE0BC032FC09C0832D84
S1130B108E7EA82E05C0B82CA32C03C0B82C01C00F
S1130B20B92CA4FE0FC0FE01E80DF11D80818033B5
S1130B3021F49A2D997EA92E09C0A2FE06C0B39471
S1130B40B39404C08A2D867809F0B394A3FC11C031
S1130B50A0FE06C0B21488F4280C922C9B180EC078
S1130B60B21460F4B60180E290E00E946107B3948D
S1130B70F7CFB21418F42B1802C0982C212CA4FE21
S1130B8010C0B60180E390E00E946107A2FE17C086
S1130B90A1FC03C088E790E002C088E590E0B601BC
S1130BA00CC08A2D867859F0A1FE02C08BE201C0E8
S1130BB080E2A7FC8DE2B60190E00E9461078914EF
S1130BC038F4B60180E390E00E9461079A94F7CF6D
S1130BD08A94F301E80DF11D8081B60190E00E9432
S1130BE061078110F5CF222009F442CEB60180E2DC
S1130BF090E00E9461072A94F6CFF60186819781DE
S1130C0002C08FEF9FEF2B96E2E10C9417080F932D
S1130C101F93CF93DF93869F8001879F100D969F2C
S1130C20100D1124C8010E942306EC01009729F03D
S1130C30A80160E070E00E944F07CE01DF91CF91E0
S1130C401F910F9108950F931F93CF93DF938230D9
S1130C50910510F482E090E0E0916003F09161036B
S1130C6020E030E0A0E0B0E0309719F140815181FC
S1130C700281138148175907C8F08417950769F44E
S1130C80109731F012960C93129713961C9327C069
S1130C90009360031093610322C02115310519F0FC
S1130CA04217530718F49A01BD01EF01DF01F8015F
S1130CB0DBCF21153105F9F0281B390B2430310520
S1130CC080F48A819B816115710521F0FB01938376
S1130CD0828304C09093610380936003FE01329683
S1130CE044C0FE01E20FF31F819391932250310916
S1130CF0398328833AC020915E0330915F03232B0C
S1130D0041F4209102013091030130935F03209359
S1130D105E0320910001309101012115310541F458
S1130D202DB73EB74091040150910501241B350BAA
S1130D30E0915E03F0915F03E217F307A0F42E1B2A
S1130D403F0B2817390778F0AC014E5F5F4F24172B
S1130D50350748F04E0F5F1F50935F0340935E03C7
S1130D608193919302C0E0E0F0E0CF01DF91CF9155
S1130D701F910F910895CF93DF93009709F481C0D9
S1130D80FC01329713821282A0916003B091610337
S1130D90109781F420813181820F931F20915E038B
S1130DA030915F032817390751F5F0935F03E093FF
S1130DB05E0367C0ED0120E030E0CE17DF0740F4AA
S1130DC04A815B819E0141155105F1F0EA01F5CF9D
S1130DD0D383C28340815181840F951FC817D907DB
S1130DE059F488819981840F951F02969183808399
S1130DF08A819B81938382832115310529F4F093A1
S1130E006103E09360033DC0E901FB83EA834991F8
S1130E105991C40FD51FEC17FD0761F480819181AE
S1130E20840F951F0296E9019983888382819381B7
S1130E309B838A83E0E0F0E012968D919C91139756
S1130E40009719F0FD01DC01F7CF8D919C9111976A
S1130E509D012E5F3F4F820F931F20915E033091BF
S1130E605F032817390769F4309729F41092610356
S1130E701092600302C013821282B0935F03A093A6
S1130E805E03DF91CF910895FC010590615070409D
S1130E900110D8F7809590958E0F9F1F0895DC015F
S1130EA001C06D9341505040E0F70895FC0161503A
S1130EB0704001900110D8F7809590958E0F9F1F78
S1130EC008950F931F93CF93DF93FB01238121FD9B
S1130ED003C08FEF9FEF2CC022FF16C046815781BD
S1130EE0248135814217530744F4A081B1819D01C7
S1130EF02F5F3F4F318320838C93268137812F5F6F
S1130F003F4F3783268314C08B01EC01FB0100841F
S1130F10F185E02D0995892BE1F6D80116968D917E
S1130F209C911797019617969C938E931697CE01D2
S1130F30DF91CF911F910F910895FA01AA272830CC
S1130F4051F1203181F1E8946F936E7F6E5F7F4F92
S1130F508F4F9F4FAF4FB1E03ED0B4E03CD0670F0E
S1130F60781F891F9A1FA11D680F791F8A1F911D61
S1130F70A11D6A0F711D811D911DA11D20D009F4B1
S1130F8068943F912AE0269F11243019305D3193F3
S1130F90DEF6CF010895462F4770405D4193B3E0DC
S1130FA00FD0C9F7F6CF462F4F70405D4A3318F083
S1130FB0495D31FD4052419302D0A9F7EACFB4E034
S1130FC0A6959795879577956795BA95C9F70097EC
S1130FD06105710508959B01AC010A2E069457958D
S1130FE0479537952795BA95C9F7620F731F841FE4
S1130FF0951FA01D08952F923F924F925F926F927A
S11310007F928F929F92AF92BF92CF92DF92EF9294
S1131010FF920F931F93CF93DF93CDB7DEB7CA1B15
S1131020DB0B0FB6F894DEBF0FBECDBF09942A8840
S1131030398848885F846E847D848C849B84AA84E8
S1131040B984C884DF80EE80FD800C811B81AA8175
S1131050B981CE0FD11D0FB6F894DEBF0FBECDBF40
S10B1060ED010895F894FFCF9F
S11310680000620320005374657020313A205365F0
S11310787474696E67206E65757472616C20706F24
S1131088736974696F6E3A20446F206E6F74206DB3
S11310986F766520746865206A6F79737469636B09
S11310A82E004E65757472616C20706F7369746973
S11310B86F6E20736574213A20785F6F6666736576
S11310C874203D2025642C20795F6F6666736574EF
S11310D8203D2025640A005374657020323A204369
S11310E8616C6962726174696F6E207820617869D5
S11310F8733A204D6F7665206A6F79737469636BF0
S113110820696E206D6178206C6566742E005374B6
S1131118657020333A2043616C6962726174696F47
S11311286E207820617869733A204D6F7665206A5D
S11311386F79737469636B20696E206D61782072AE
S1131148696768742E0056616C75657320583A2077
S1131158785F6D696E203D2025642C20785F6D6171
S113116878203D2025640A005374657020343A20A1
S113117843616C6962726174696F6E207920617869
S113118869733A204D6F7665206A6F797374696361
S11311986B20696E206D61782075702E005374651C
S11311A87020353A2043616C6962726174696F6EAC
S11311B8207920617869733A204D6F7665206A6FCB
S11311C879737469636B20696E206D617820646F2C
S11311D8776E2E0056616C75657320593A20795FD5
S11311E86D696E203D2025642C20795F6D6178201F
S11311F83D2025640A0043616C6962726174696FF9
S11312086E20656E64656421005249474854004C59
S113121845465400555000444F574E004E455554CA
S113122852414C005374617274696E67204144439F
S113123820746573742E2E2E004920616D207072FF
S1131248696E7466210A0D00506F736974696F6E54
S113125820783A202564202C20506F736974696FB4
S11312686E20793A202564200A0D00506F73697442
S1131278696F6E206F66206A6F79737469636B3A5D
S11312882025730A0D00506F736974696F6E204CC2
S1131298454654203A2025642025250A0D00506F20
S11312A8736974696F6E205249474854203A20255F
S10B12B8642025250A0D000045
S9030000FC
