S013000050696E506F6E6747616D652E73726563DC
S11300000C9438000C9455000C9455000C94550035
S11300100C9455000C9455000C9455000C94550008
S11300200C9455000C9455000C9455000C945500F8
S11300300C9455000C9455000C9455000C945500E8
S11300400C9455000C9455000C9455000C945500D8
S11300500C9455000C9455000C9455000C945500C8
S11300600C9455000C9455000C9455000C945500B8
S113007011241FBECFEFD4E0DEBFCDBF11E0A0E05E
S1130080B1E0E2EDFDE002C005900D92AA3AB1079D
S1130090D9F721E0AAEAB1E001C01D92A83BB2075A
S11300A0E1F70E9482010C94E7060C94000060E0E2
S11300B074E180680E94EA0189E999E00197F1F707
S11300C000C080E094E10E94ED0108954F925F9298
S11300D06F927F928F929F92AF92BF92CF92DF9254
S11300E0EF92FF921F93CF93DF9386E091E09F936B
S11300F08F930E94C5020F900F90C0E0D0E0C12CF6
S1130100D12C7601812C912C540110C080E00E94E6
S11301105700182F81E00E945700810E911CA11CEA
S1130120B11CC80ED11CE11CF11C2196C43F81E016
S1130130D80760F3C501B40124EF31E040E050E09A
S11301400E94250229018FE7481A5108C701B60108
S113015024EF31E040E050E00E94250239018FE7AE
S1130160681A7108C301B201DF91CF911F91FF900A
S1130170EF90DF90CF90BF90AF909F908F907F9043
S11301806F905F904F9008958F929F92AF92BF921D
S1130190EF92FF920F931F93CF93DF934B015C0178
S11301A080E00E945700E82EF12C81E00E94570065
S11301B0082F10E080E00E945700C82FD0E0C81933
S11301C0D90980E00E945700282F30E02A193B0902
S11301D0CE15DF057CF448EC4C9FC0014D9F900D7B
S11301E011246FEF70E0681979090E9411024CE93B
S11301F0460F1DC0EC16FD0674F448EC4C9FC0017C
S11302004D9F900D1124B40161507F4F0E94110243
S11302104CE9460F0CC048EC4C9FC0014D9F900D1B
S113022011246FEF70E00E9411024CE9460F201771
S113023031077CF458EC529FC001539F900D112458
S11302406FEF70E06A197B090E9411029CE9960F16
S11302501DC00217130774F458EC529FC001539F3A
S1130260900D1124B50161507F4F0E9411029CE949
S1130270960F0CC058EC529FC001539F900D11244F
S11302806FEF70E00E9411029CE9960F842FDF91BA
S1130290CF911F910F91FF90EF90BF90AF909F90DF
S11302A08F9008956091AA017091AB018091AC0187
S11302B09091AD010E94C40089324CF4883D54F001
S11302C099325CF4983D64F48BE391E008958DE2F7
S11302D091E0089583E391E0089588E391E008951F
S11302E080E491E0089581B3806281BB8FB58C7FF7
S11302F08FBD8FB580648FBD8EB589608EBD1ABCED
S11303001BBC08950E94E3018FE190E00E94F0017C
S11303100E9473016CE072E08EEF91E00E947A0219
S1130320EEEAF1E093838283918380838DE591E00B
S11303309F938F930E94C5020E9466006B017C010B
S11303400F900F9086B18E7F86B987B1816087B98F
S113035086B18B7F86B987B1846087B987B38B7F79
S113036087BBC701B6010E94C400292F092E000CC7
S1130370330B3F939F93282F082E000C330B3F938E
S11303808F938CE691E09F938F930E94C5020E9405
S113039052019F938F938FE891E09F938F930E94D4
S11303A0C5022FEF8FEF9DE1215080409040E1F78F
S11303B000C000008DB79EB70A960FB6F8949EBF92
S11303C00FBE8DBFBFCF85B7806885BF80B7806201
S11303D080BF0895FB0180830895FC018081089506
S11303E090BD89B98BB18D7F8BB988E18AB986E8D4
S11303F080BD08955D9BFECF8CB90895CF93C82F1F
S11304008A3019F48DE00E94FA018C2F0E94FA01BF
S113041080E090E0CF9108955F9BFECF8CB190E097
S1130420089597FB072E16F4009407D077FD09D0A2
S11304300E94440207FC05D03EF4909581959F4F9D
S11304400895709561957F4F0895052E97FB1EF4CE
S113045000940E943C0257FD07D00E94580207FCFA
S113046003D04EF40C943C02509540953095219560
S11304703F4F4F4F5F4F08959095809570956195CC
S11304807F4F8F4F9F4F0895AA1BBB1B51E107C09D
S1130490AA1FBB1FA617B70710F0A61BB70B881F10
S11304A0991F5A95A9F780959095BC01CD0108959F
S11304B0A1E21A2EAA1BBB1BFD010DC0AA1FBB1F64
S11304C0EE1FFF1FA217B307E407F50720F0A21BD6
S11304D0B30BE40BF50B661F771F881F991F1A9443
S11304E069F760957095809590959B01AC01BD016D
S11304F0CF0108950F931F93CF93DF93009731F4A7
S11305006115710519F480E090E03AC08B01EC01AB
S11305106EE070E081E090E00E94BC04FC01892B55
S113052091F380E883830115110571F01387028725
S113053081E883838091AE019091AF01892B21F4EE
S1130540F093AF01E093AE012097C9F0D187C08743
S11305508381826083838091B0019091B101892B62
S113056071F4F093B101E093B0018091B2019091E4
S1130570B301892B21F4F093B301E093B201CF01CD
S1130580DF91CF911F910F910895A0E0B0E0EBECC3
S1130590F2E00C94C006AE014B5F5F4FFA0161912B
S11305A07191AF018091B0019091B1010E94DB0281
S11305B0E2E00C94DC06ABE0B0E0E1EEF2E00C9497
S11305C0B0066C017B018A01FC01178216828381CB
S11305D081FFCCC1CE0101963C01F6019381F70164
S11305E093FD859193FF81917F01882309F4BAC11A
S11305F0853239F493FD859193FF81917F01853292
S113060029F4B60190E00E941606E7CF912C212C24
S1130610312CFFE1F315D8F08B3279F038F48032C5
S113062079F08332A1F4232D20611DC08D3261F055
S1130630803369F4232D216016C0832D8260382E07
S1130640E32DE4603E2E2AC0F32DF8601DC037FC74
S11306502DC020ED280F2A3040F08E32B9F436FC3C
S113066081C1232D2064322E19C036FE06C08AE0D3
S1130670989E200D1124922E11C0EAE02E9E200D8A
S11306801124222EF32DF0623F2E08C08C3621F463
S1130690832D8068382E02C0883641F4F70193FD1B
S11306A0859193FF81917F018111B3CF982F9F7D15
S11306B09554933028F40C5F1F4F9FE399830DC02A
S11306C0833631F0833771F0833509F059C021C086
S11306D0F801808189830E5F1F4F88248394912CB5
S11306E0530113C02801F2E04F0E511CF801A08001
S11306F0B18036FE03C0692D70E002C06FEF7FEF5A
S1130700C5010E940B064C018201F32DFF773F2E99
S113071016C0280122E0420E511CF801A080B180CD
S113072036FE03C0692D70E002C06FEF7FEFC50194
S11307300E94F9054C01F32DF0683F2E820133FC31
S11307401BC0822D90E088169906B0F4B60180E2B1
S113075090E00E9416062A94F4CFF50137FC8591A7
S113076037FE81915F01B60190E00E9416062110C8
S11307702A9421E0821A91088114910471F7E8C047
S1130780843611F0893641F5F80137FE07C06081DF
S11307907181828193810C5F1F4F08C060817181D8
S11307A0072E000C880B990B0E5F1F4FF32DFF765D
S11307B03F2E97FF09C090958095709561957F4F66
S11307C08F4F9F4FF0683F2E2AE030E0A3010E9434
S11307D05206882E861845C0853731F4232D2F7E86
S11307E0B22E2AE030E025C0932D997FB92E8F36A2
S11307F0C1F018F4883579F0B5C0803719F088371E
S113080021F0B0C0E92FE061BE2EB4FE0DC0FB2D77
S1130810F460BF2E09C034FE0AC0292F2660B22E10
S113082006C028E030E005C020E130E002C020E14D
S113083032E0F801B7FE07C0608171818281938143
S11308400C5F1F4F06C06081718180E090E00E5FF5
S11308501F4FA3010E945206882E8618FB2DFF7796
S11308603F2E36FE0DC0232D2E7FA22E891458F460
S113087034FE0BC032FC09C0832D8E7EA82E05C029
S1130880B82CA32C03C0B82C01C0B92CA4FE0FC0F3
S1130890FE01E80DF11D8081803321F49A2D997EAB
S11308A0A92E09C0A2FE06C0B394B39404C08A2D35
S11308B0867809F0B394A3FC11C0A0FE06C0B2145C
S11308C088F4280C922C9B180EC0B21460F4B60164
S11308D080E290E00E941606B394F7CFB21418F4A5
S11308E02B1802C0982C212CA4FE10C0B60180E362
S11308F090E00E941606A2FE17C0A1FC03C088E780
S113090090E002C088E590E0B6010CC08A2D86789C
S113091059F0A1FE02C08BE201C080E2A7FC8DE287
S1130920B60190E00E941606891438F4B60180E3FB
S113093090E00E9416069A94F7CF8A94F301E80D8A
S1130940F11D8081B60190E00E9416068110F5CF5A
S1130950222009F442CEB60180E290E00E941606FD
S11309602A94F6CFF6018681978102C08FEF9FEF1C
S11309702B96E2E10C94CC060F931F93CF93DF9355
S1130980869F8001879F100D969F100D1124C8012A
S11309900E94D804EC01009729F0A80160E070E0FF
S11309A00E940406CE01DF91CF911F910F9108950B
S11309B00F931F93CF93DF938230910510F482E05D
S11309C090E0E091B601F091B70120E030E0A0E0C2
S11309D0B0E0309719F140815181028113814817A9
S11309E05907C8F08417950769F4109731F01296E7
S11309F00C93129713961C9327C00093B60110937F
S1130A00B70122C02115310519F04217530718F414
S1130A109A01BD01EF01DF01F801DBCF211531059A
S1130A20F9F0281B390B2430310580F48A819B812D
S1130A306115710521F0FB019383828304C09093B7
S1130A40B7018093B601FE01329644C0FE01E20F65
S1130A50F31F8193919322503109398328833AC03B
S1130A602091B4013091B501232B41F4209102016E
S1130A70309103013093B5012093B401209100011A
S1130A80309101012115310541F42DB73EB7409154
S1130A90040150910501241B350BE091B401F09140
S1130AA0B501E217F307A0F42E1B3F0B28173907F3
S1130AB078F0AC014E5F5F4F2417350748F04E0FB6
S1130AC05F1F5093B5014093B4018193919302C089
S1130AD0E0E0F0E0CF01DF91CF911F910F910895F5
S1130AE0CF93DF93009709F481C0FC0132971382FE
S1130AF01282A091B601B091B701109781F42081C0
S1130B003181820F931F2091B4013091B5012817D0
S1130B10390751F5F093B501E093B40167C0ED01D5
S1130B2020E030E0CE17DF0740F44A815B819E016C
S1130B3041155105F1F0EA01F5CFD383C283408119
S1130B405181840F951FC817D90759F48881998159
S1130B50840F951F0296918380838A819B8193835E
S1130B6082832115310529F4F093B701E093B6018E
S1130B703DC0E901FB83EA8349915991C40FD51F14
S1130B80EC17FD0761F480819181840F951F029613
S1130B90E90199838883828193819B838A83E0E03E
S1130BA0F0E012968D919C911397009719F0FD0136
S1130BB0DC01F7CF8D919C9111979D012E5F3F4FE2
S1130BC0820F931F2091B4013091B5012817390782
S1130BD069F4309729F41092B7011092B60102C05B
S1130BE013821282B093B501A093B401DF91CF9127
S1130BF00895FC010590615070400110D8F780956C
S1130C0090958E0F9F1F0895DC0101C06D93415094
S1130C105040E0F70895FC016150704001900110CC
S1130C20D8F7809590958E0F9F1F08950F931F936B
S1130C30CF93DF93FB01238121FD03C08FEF9FEF4F
S1130C402CC022FF16C0468157812481358142176A
S1130C50530744F4A081B1819D012F5F3F4F31833D
S1130C6020838C93268137812F5F3F4F37832683E0
S1130C7014C08B01EC01FB010084F185E02D099582
S1130C80892BE1F6D80116968D919C9117970196C0
S1130C9017969C938E931697CE01DF91CF911F9157
S1130CA00F910895FA01AA27283051F1203181F1DA
S1130CB0E8946F936E7F6E5F7F4F8F4F9F4FAF4F60
S1130CC0B1E03ED0B4E03CD0670F781F891F9A1F73
S1130CD0A11D680F791F8A1F911DA11D6A0F711D27
S1130CE0811D911DA11D20D009F468943F912AE033
S1130CF0269F11243019305D3193DEF6CF0108951B
S1130D00462F4770405D4193B3E00FD0C9F7F6CF4B
S1130D10462F4F70405D4A3318F0495D31FD405213
S1130D20419302D0A9F7EACFB4E0A69597958795A9
S1130D3077956795BA95C9F7009761057105089588
S1130D409B01AC010A2E0694579547953795279534
S1130D50BA95C9F7620F731F841F951FA01D0895CC
S1130D602F923F924F925F926F927F928F929F92B7
S1130D70AF92BF92CF92DF92EF92FF920F931F93A5
S1130D80CF93DF93CDB7DEB7CA1BDB0B0FB6F89456
S1130D90DEBF0FBECDBF09942A88398848885F8496
S1130DA06E847D848C849B84AA84B984C884DF8007
S1130DB0EE80FD800C811B81AA81B981CE0FD11DEB
S1130DC00FB6F894DEBF0FBECDBFED010895F894C1
S1050DD0FFCF4F
S1130DD20000B8012000486F6C6420746865206AC2
S1130DE26F79737469636B206F6E206E65757472AC
S1130DF2616C20706F736974696F6E210052494788
S1130E024854004C45465400555000444F574E0038
S1130E124E45555452414C005374617274696E6765
S1130E222041444320746573742E2E2E00492061A0
S1130E326D207072696E7466210A0D00506F7369B9
S1130E4274696F6E20783A202564202C20506F73C9
S1130E526974696F6E20793A202564200A0D005066
S1130E626F736974696F6E206F66206A6F79737429
S10D0E7269636B3A2025730A0D0032
S9030000FC
