S01700004763634170706C69636174696F6E312E737265635B
S11300000C9438000C944D000C944D000C944D004D
S11300100C944D000C944D000C944D000C944D0028
S11300200C944D000C944D000C944D000C944D0018
S11300300C944D000C944D000C944D000C944D0008
S11300400C944D000C944D000C944D000C944D00F8
S11300500C944D000C944D000C944D000C944D00E8
S11300600C944D000C944D000C944D000C944D00D8
S113007011241FBECFEFD4E0DEBFCDBF11E0A0E05E
S1130080B1E0E6E1F1E002C005900D92A630B107BF
S1130090D9F70E9463000C9489000C94000010BCF2
S11300A089ED89B98BB18D7F8BB988E18AB986E8EE
S11300B080BD08955D9BFECF8CB90895FC018081BD
S11300C00E945A000895CF93DF9300D000D0CDB79B
S11300D0DEB70E944F0080E091E00E945E0019822A
S11300E01A821B821C820BC089819A81AB81BC81DC
S11300F00196A11DB11D89839A83AB83BC83898139
S11301009A81AB81BC8188389341A105B10564F320
S1090110E2CFF894FFCFDA
S109011648454C4C0A00B0
S9030000FC
