:100000000C9438000C9455000C9455000C94550039
:100010000C9455000C9455000C9455000C9455000C
:100020000C9455000C9455000C9455000C945500FC
:100030000C9455000C9455000C9455000C945500EC
:100040000C9455000C9455000C9455000C945500DC
:100050000C9455000C9455000C9455000C945500CC
:100060000C9455000C9455000C9455000C945500BC
:1000700011241FBECFEFD4E0DEBFCDBF11E0A0E062
:10008000B1E0E0E9FCE002C005900D92A239B107B1
:10009000D9F721E0A2E9B1E001C01D92A03AB20770
:1000A000E1F70E941E010C9446060C940000E6E65F
:1000B000FEE03197F1F70000E0E0F4E18083808119
:1000C00008954F925F926F927F928F929F92AF921C
:1000D000BF92CF92DF92EF92FF921F93CF93DF9365
:1000E00000D000D000D0CDB7DEB786E091E09F937E
:1000F0008F930E9424020F900F901E821D82C12CAC
:10010000D12C7601812C912C540114C080E80E94DE
:100110005700182F81E80E945700810E911CA11CE6
:10012000B11CC80ED11CE11CF11C8D819E81019671
:100130009E838D838D819E81843F914038F30F2E65
:10014000F4EF4F2E55245394612C712CF02DC501E2
:10015000B401A30192010E9498013A832983C70147
:10016000B601A30192010E9498013C832B8369810F
:100170007A818B819C8126960FB6F894DEBF0FBEE4
:10018000CDBFDF91CF911F91FF90EF90DF90CF9087
:10019000BF90AF909F908F907F906F905F904F90A7
:1001A0000895CF93DF93C62FD82F80E80E94570081
:1001B0008C1BC82F81E80E945700282F2D1B34E686
:1001C000C39FC0011124880F892F881F990B44E613
:1001D000249F90011124220F232F221F330B922FD3
:1001E000DF91CF9108956091920170919301809178
:1001F0009401909195010E94D100853144F48C3E88
:1002000044F0953144F49C3E44F484E0089582E047
:10021000089581E0089583E0089580E0089581B312
:10022000806281BB8FB58C7F8FBD8FB580648FBDA1
:100230008EB589608EBD1ABC1BBC08950E947001EA
:100240008FE190E00E9477010E940F0163E971E065
:1002500085E891E00E94D901E6E9F1E09383828389
:100260009183808381E491E09F938F930E94240285
:100270000E9461006B017C010F900F90C701B601D5
:100280000E94D100292F092E000C330B3F939F931E
:10029000282F082E000C330B3F938F9380E591E0BD
:1002A0009F938F930E9424020E94F3001F928F93CA
:1002B00087E791E09F938F930E9424022FEF8FE7AF
:1002C00097E0215080409040E1F700C000008DB7DA
:1002D0009EB70A960FB6F8949EBF0FBE8DBFCECFC5
:1002E00085B7806885BF80B7806280BF089590BD64
:1002F00089B98BB18D7F8BB988E18AB986E880BDD9
:1003000008955D9BFECF8CB90895CF93C82F8A3096
:1003100019F48DE00E9481018C2F0E94810180E000
:1003200090E0CF9108955F9BFECF8CB190E008954F
:10033000052E97FB1EF400940E94AF0157FD07D0D5
:100340000E94B70107FC03D04EF40C94AF01509506
:100350004095309521953F4F4F4F5F4F08959095B1
:100360008095709561957F4F8F4F9F4F0895A1E2C3
:100370001A2EAA1BBB1BFD010DC0AA1FBB1FEE1F1F
:10038000FF1FA217B307E407F50720F0A21BB30B6A
:10039000E40BF50B661F771F881F991F1A9469F7E6
:1003A00060957095809590959B01AC01BD01CF0142
:1003B00008950F931F93CF93DF93009731F4611546
:1003C000710519F480E090E03AC08B01EC016EE019
:1003D00070E081E090E00E941B04FC01892B91F306
:1003E00080E883830115110571F01387028781E886
:1003F00083838091960190919701892B21F4F0934A
:100400009701E09396012097C9F0D187C087838137
:10041000826083838091980190919901892B71F476
:10042000F0939901E093980180919A0190919B013A
:10043000892B21F4F0939B01E0939A01CF01DF9186
:10044000CF911F910F910895A0E0B0E0EAE2F2E0B1
:100450000C941F06AE014B5F5F4FFA0161917191E1
:10046000AF0180919801909199010E943A02E2E0D7
:100470000C943B06ABE0B0E0E0E4F2E00C940F0635
:100480006C017B018A01FC0117821682838181FF46
:10049000CCC1CE0101963C01F6019381F70193FD99
:1004A000859193FF81917F01882309F4BAC1853238
:1004B00039F493FD859193FF81917F01853229F471
:1004C000B60190E00E947505E7CF912C212C312CCC
:1004D000FFE1F315D8F08B3279F038F4803279F0FF
:1004E0008332A1F4232D20611DC08D3261F0803351
:1004F00069F4232D216016C0832D8260382EE32DF0
:10050000E4603E2E2AC0F32DF8601DC037FC2DC0DC
:1005100020ED280F2A3040F08E32B9F436FC81C12C
:10052000232D2064322E19C036FE06C08AE0989E24
:10053000200D1124922E11C0EAE02E9E200D1124D0
:10054000222EF32DF0623F2E08C08C3621F4832D2D
:100550008068382E02C0883641F4F70193FD8591FA
:1005600093FF81917F018111B3CF982F9F7D955487
:10057000933028F40C5F1F4F9FE399830DC083369F
:1005800031F0833771F0833509F059C021C0F8018B
:10059000808189830E5F1F4F88248394912C53019F
:1005A00013C02801F2E04F0E511CF801A080B18069
:1005B00036FE03C0692D70E002C06FEF7FEFC5010A
:1005C0000E946A054C018201F32DFF773F2E16C071
:1005D000280122E0420E511CF801A080B18036FEB5
:1005E00003C0692D70E002C06FEF7FEFC5010E946C
:1005F00058054C01F32DF0683F2E820133FC1BC0DF
:10060000822D90E088169906B0F4B60180E290E061
:100610000E9475052A94F4CFF50137FC859137FEC9
:1006200081915F01B60190E00E94750521102A9426
:1006300021E0821A91088114910471F7E8C0843690
:1006400011F0893641F5F80137FE07C060817181EC
:10065000828193810C5F1F4F08C060817181072EDA
:10066000000C880B990B0E5F1F4FF32DFF763F2E6A
:1006700097FF09C090958095709561957F4F8F4F3A
:100680009F4FF0683F2E2AE030E0A3010E94B105A1
:10069000882E861845C0853731F4232D2F7EB22E43
:1006A0002AE030E025C0932D997FB92E8F36C1F016
:1006B00018F4883579F0B5C0803719F0883721F003
:1006C000B0C0E92FE061BE2EB4FE0DC0FB2DF4607A
:1006D000BF2E09C034FE0AC0292F2660B22E06C0E4
:1006E00028E030E005C020E130E002C020E132E047
:1006F000F801B7FE07C060817181828193810C5F30
:100700001F4F06C06081718180E090E00E5F1F4F37
:10071000A3010E94B105882E8618FB2DFF773F2E7E
:1007200036FE0DC0232D2E7FA22E891458F434FEE0
:100730000BC032FC09C0832D8E7EA82E05C0B82CBC
:10074000A32C03C0B82C01C0B92CA4FE0FC0FE011D
:10075000E80DF11D8081803321F49A2D997EA92E18
:1007600009C0A2FE06C0B394B39404C08A2D867853
:1007700009F0B394A3FC11C0A0FE06C0B21488F423
:10078000280C922C9B180EC0B21460F4B60180E2C3
:1007900090E00E947505B394F7CFB21418F42B18AB
:1007A00002C0982C212CA4FE10C0B60180E390E07A
:1007B0000E947505A2FE17C0A1FC03C088E790E067
:1007C00002C088E590E0B6010CC08A2D867859F009
:1007D000A1FE02C08BE201C080E2A7FC8DE2B6015F
:1007E00090E00E947505891438F4B60180E390E02A
:1007F0000E9475059A94F7CF8A94F301E80DF11DD4
:100800008081B60190E00E9475058110F5CF22200D
:1008100009F442CEB60180E290E00E9475052A9468
:10082000F6CFF6018681978102C08FEF9FEF2B965E
:10083000E2E10C942B060F931F93CF93DF93869FD7
:100840008001879F100D969F100D1124C8010E94F2
:100850003704EC01009729F0A80160E070E00E94E5
:100860006305CE01DF91CF911F910F9108950F93F2
:100870001F93CF93DF938230910510F482E090E0D4
:10088000E0919E01F0919F0120E030E0A0E0B0E017
:10089000309719F14081518102811381481759071E
:1008A000C8F08417950769F4109731F012960C93ED
:1008B000129713961C9327C000939E0110939F01DB
:1008C00022C02115310519F04217530718F49A0177
:1008D000BD01EF01DF01F801DBCF21153105F9F092
:1008E000281B390B2430310580F48A819B816115E6
:1008F000710521F0FB019383828304C090939F01D3
:1009000080939E01FE01329644C0FE01E20FF31F68
:100910008193919322503109398328833AC02091E1
:100920009C0130919D01232B41F4209102013091D3
:10093000030130939D0120939C012091000130918F
:1009400001012115310541F42DB73EB74091040155
:1009500050910501241B350BE0919C01F0919D0104
:10096000E217F307A0F42E1B3F0B2817390778F086
:10097000AC014E5F5F4F2417350748F04E0F5F1FE5
:1009800050939D0140939C018193919302C0E0E0BC
:10099000F0E0CF01DF91CF911F910F910895CF9398
:1009A000DF93009709F481C0FC0132971382128211
:1009B000A0919E01B0919F01109781F42081318117
:1009C000820F931F20919C0130919D0128173907B8
:1009D00051F5F0939D01E0939C0167C0ED0120E08B
:1009E00030E0CE17DF0740F44A815B819E0141155C
:1009F0005105F1F0EA01F5CFD383C28340815181E3
:100A0000840F951FC817D90759F488819981840FDD
:100A1000951F0296918380838A819B819383828331
:100A20002115310529F4F0939F01E0939E013DC00B
:100A3000E901FB83EA8349915991C40FD51FEC1753
:100A4000FD0761F480819181840F951F0296E90171
:100A500099838883828193819B838A83E0E0F0E09D
:100A600012968D919C911397009719F0FD01DC016E
:100A7000F7CF8D919C9111979D012E5F3F4F820F73
:100A8000931F20919C0130919D012817390769F42B
:100A9000309729F410929F0110929E0102C0138298
:100AA0001282B0939D01A0939C01DF91CF91089594
:100AB000FC010590615070400110D8F78095909529
:100AC0008E0F9F1F0895DC0101C06D93415050406F
:100AD000E0F70895FC016150704001900110D8F7D3
:100AE000809590958E0F9F1F08950F931F93CF931E
:100AF000DF93FB01238121FD03C08FEF9FEF2CC00B
:100B000022FF16C046815781248135814217530741
:100B100044F4A081B1819D012F5F3F4F3183208339
:100B20008C93268137812F5F3F4F3783268314C0F4
:100B30008B01EC01FB010084F185E02D0995892BE7
:100B4000E1F6D80116968D919C911797019617960C
:100B50009C938E931697CE01DF91CF911F910F91A9
:100B60000895FA01AA27283051F1203181F1E89443
:100B70006F936E7F6E5F7F4F8F4F9F4FAF4FB1E090
:100B80003ED0B4E03CD0670F781F891F9A1FA11D8B
:100B9000680F791F8A1F911DA11D6A0F711D811D8C
:100BA000911DA11D20D009F468943F912AE0269F51
:100BB00011243019305D3193DEF6CF010895462FB0
:100BC0004770405D4193B3E00FD0C9F7F6CF462F91
:100BD0004F70405D4A3318F0495D31FD40524193FA
:100BE00002D0A9F7EACFB4E0A695979587957795B7
:100BF0006795BA95C9F700976105710508959B013E
:100C0000AC010A2E06945795479537952795BA95C6
:100C1000C9F7620F731F841F951FA01D08952F929F
:100C20003F924F925F926F927F928F929F92AF927C
:100C3000BF92CF92DF92EF92FF920F931F93CF93C9
:100C4000DF93CDB7DEB7CA1BDB0B0FB6F894DEBF60
:100C50000FBECDBF09942A88398848885F846E8486
:100C60007D848C849B84AA84B984C884DF80EE80D0
:100C7000FD800C811B81AA81B981CE0FD11D0FB6D9
:100C8000F894DEBF0FBECDBFED010895F894FFCFFD
:100C90000000A0012000486F6C6420746865206A21
:100CA0006F7973746963206F6E206E6575747261FD
:100CB0006C20706F736974696F6E21005374617278
:100CC00074696E672041444320746573742E2E2E20
:100CD000004920616D207072696E7466210A0D00F2
:100CE000506F736974696F6E20783A2025642025EF
:100CF000252C20506F736974696F6E20793A202516
:100D0000642025250A0D00506F736974696F6E2089
:100D10006F66206A6F79737469636B3A2025640A81
:020D20000D00C4
:00000001FF
